:020000022000DC
:1060000000000120399F0200619F0200216E020002
:10601000659F0200679F0200699F02000000000068
:106020000000000000000000000000006B9F020064
:106030006D9F0200000000006F9F0200719F020030
:1060400035830200739F0200ED870200718B02000E
:10605000918A0200739F020061860200E5880200B7
:10606000418B0200518B0200739F0200739F02005C
:10607000739F0200739F0200739F0200739F0200D0
:10608000739F02006D690200739F0200739F0200FC
:10609000096A0200739F0200ED990200739F0200DB
:1060A000739F0200739F0200739F0200739F0200A0
:1060B0009D880200739F02000000000000000000A5
:1060C000739F0200AD880200BD880200739F02002A
:1060D000739F0200F5900200739F02000000000011
:1060E00000000000000000000000000000000000B0
:1060F00000000000000000000000000000000000A0
:10610000000000000000000000000000000000008F
:10611000000000000000000000000000000000007F
:10612000000000000000000000000000000000006F
:10613000000000000000000000000000000000005F
:10614000000000000000000000000000000000004F
:10615000000000000000000000000000000000003F
:10616000000000000000000000000000000000002F
:10617000000000000000000000000000000000001F
:10618000000000000000000000000000000000000F
:1061900000000000000000000000000000000000FF
:1061A00000000000000000000000000000000000EF
:1061B00000000000000000000000000000000000DF
:1061C00000000000000000000000000000000000CF
:1061D00000000000000000000000000000000000BF
:1061E00000000000000000000000000000000000AF
:1061F000000000000000000000000000000000009F
:1062000010B5054C237833B9044B13B10448AFF3F0
:1062100000800123237010BD78A200200000000040
:106220006C17030008B5034B1BB103490348AFF3D8
:10623000008008BD000000007CA200206C17030055
:10624000154B002B08BF134B9D46A3F5803A002148
:106250008B460F461348144A121A03F08BFF0F4B5C
:10626000002B00D098470E4B002B00D09847002001
:10627000002104000D000D48002802D00C4805F054
:10628000E1FF03F087FE2000290000F075F803F01D
:1062900071FE00BF000008000000012000000000A7
:1062A0000000000078A20020D8BA002045C20200F9
:1062B00015D4020030B5104B104C1B785BB9104A56
:1062C000137843B9022111700E494CF6FE22228048
:1062D0000A800D4A1370218800220B465D1E8552EC
:1062E0000133851804329BB2B2F5007F6B80F5D183
:1062F0008031218030BD00BF94A200209CAA0020E4
:106300009EAA00209AAA002098AA002037B50D4620
:10631000044618B91349B82003F096FCEB0712D5D0
:106320002368114D8BB9114A92E803006B4683E84C
:106330000300184602F04EFE18B10A4ACC2100F0C4
:10634000C2FA0B4B2B6003B030BD0A4A20461360E3
:1063500002F040FE18B1034AD62100F0B4FA636897
:10636000F0E700BF38FF0200A4AA002014FF0200DB
:1063700098A80020A0AA00202DE9F04F4FF400417A
:106380008DB0002001F0E0FA18B1534AEF2100F07F
:106390009AFA524D01F006FA514803F035FF0FCD3D
:1063A00007AC0FC42B684F49236007A802F0A0FC7C
:1063B00020B1494A40F2011100F085FA9DF8201001
:1063C000494803F021FF9DF81F10484803F01CFFC7
:1063D000474B484A9B1ADB081B0443F0030A4FF063
:1063E0000508454D454E464F464800242C70346004
:1063F0003C60FFF75FFF444A92E8030005AB83E887
:10640000030022468021184602F03CFD20B1324AAA
:1064100040F2131100F057FADFF8009120BF40BF9F
:1064200020BF336823B13068FFF744FF0023336097
:106430003B6833B33B6803932B780133DBB22B709B
:10644000324B1C78DCB9DFF8D8B0039A039B02EB1F
:10645000840233F82430518899F800205AB353BB92
:1064600049BB013A89F800200134802CEDD12A780B
:106470002749504601F046FC244A002313700023AC
:106480003B602B781B06C9D502F014FE01F0B6FA6A
:106490000028FBD11F4D4FF4FA7445F001054FF46D
:1064A0007A40A847013CFAD1B8F1010899D1404699
:1064B0000DB0BDE8F08F002289F80020BBF8002065
:1064C0000132ABF8002050462A78CDE90014124979
:1064D00001F038FCC8E700BF38FF02001CFF0200D3
:1064E00046FF02000D63020064FF020071FF02001C
:1064F000E01703008017030094A20020A4AA002044
:10650000A0AA002098A6002030FF020098AA002030
:106510009CFF020040FF02007FFF02009EAA0020B5
:106520009AAA002038B5054D044645F001054FF400
:106530007A40A847013CFAD138BD00BF6000030093
:106540007FB505460E46144672B601F033FC01F0E5
:1065500055FA0028FBD13E4803F056FE41F20103F4
:106560009D4264D006D8012D12D03146394803F03F
:106570004BFE10E044F201039D425AD044F2020364
:106580009D42F2D122886168334803F03DFE02E06B
:10659000324803F039FE01F06FFF08B901F036FF11
:1065A0000023ADF80C308DF80E3003A9012319201B
:1065B0008DF80D3001F06AFF03A9182001F066FF85
:1065C00003A9172001F062FF192002F01BF8182020
:1065D00002F018F8172002F015F84FF4FA70FFF7E0
:1065E000A1FF192001F0E0FF182001F0DDFF1720C6
:1065F00001F0DAFF3220FFF795FF192002F002F8D0
:10660000182001F0FFFF172001F0FCFF4FF4FA7093
:10661000FFF788FF192001F0C7FF182001F0C4FF21
:10662000172001F0C1FFFA20FFF77CFFCCE70C48F0
:10663000AFE7A568284601F027FE2368019600937E
:10664000024663680748294603F0DEFDA3E700BF62
:10665000A4FF020041000300FCFF0200BDFF020096
:10666000DAFF02001700030007B501F005FF08B9C3
:1066700001F0CCFE0023ADF804308DF8063001A9FE
:10668000012319208DF8053001F000FF01A9182021
:1066900001F0FCFE01A9172001F0F8FE192001F01D
:1066A000B1FF182001F0AEFF172001F0ABFF4FF44F
:1066B000FA70FFF737FF192001F076FF182001F07C
:1066C00073FF172001F070FF3220FFF72BFF192016
:1066D00001F098FF182001F095FF172001F092FFBC
:1066E0004FF4FA70FFF71EFF192001F05DFF18202C
:1066F00001F05AFF172001F057FFFA20FFF712FFB1
:10670000CCE70369C1688B429DBF8268D21802F151
:10671000FF3203F1FF3394BF501A581A70472DE926
:10672000F041D0E902670446F61B4068964288466D
:106730001546384405D903F083FC3D44E560BDE8C7
:10674000F0813246AD1B03F07BFC2A4608EB0601C4
:10675000606803F075FCF1E72DE9F843C56806466B
:10676000894617464FF000083469B3687068A5423F
:1067700028BFE418013C621B5C1BBC4228BF3C469E
:10678000944228BF144649462844224603F058FC48
:10679000B3682544AB4208BF00253F1BA044A14479
:1067A000F560E1D14046BDE8F883000010B5114C1A
:1067B000114AA2610223C4E90433104BE361A264CD
:1067C0004FF400730E4A2362E264002310220D4945
:1067D000A362E01D6362E362A3656365E36522650E
:1067E00003F0EEFD0849204603F0EAFD2023A371E3
:1067F00010BD00BF28BA002066000300D8AC0020FE
:10680000C8AC00206F00030073000300F8B5184CFB
:10681000182300FB033503FB00402544C46A012C08
:106820000F46164611D003D3022C1BD000240AE0D9
:106830002846FFF766FF864205D832463946284685
:10684000FFF76DFF34462046F8BD2846FFF759FF95
:106850008642344628BF0446224639462846FFF77A
:106860005EFFF0E72846BDE8F840FFF775BF00BFC0
:1068700028BA002073B50D4B1B7804460D4616460A
:106880000BB9FFF793FF02A8002300F8013D00F0C9
:106890006FFA324629462046FFF7B8FF04469DF8B6
:1068A000070000F095FA204602B070BD28BA00201B
:1068B000FFF77CBF10B511461C461A460020FFF7B3
:1068C000D9FF204610BD00B583B00290009101921F
:1068D00044F2010071466A46FFF732FE03B000BD84
:1068E000094A537891780133DBB2994208BF0023FB
:1068F000117899421FBF03705078182303FB0020C2
:1069000014BF043000207047D8AE002073B5054690
:1069100002A8002400F8014D0E4600F029FA0DF1FE
:106920000600FFF7DDFF90B106700A4B9DF80620C8
:1069300045605A709DF8070000F04AFA24B9064BEA
:106940004FF48012C3F80021204602B070BD042429
:10695000F0E700BFD8AE002000E100E0024B4FF4AA
:106960003C6043F00103184780000300F8B51F495D
:106970001F4B0025C1F84051C1F84451C1F848519E
:10698000C1F84C51C1F80051C1F804511B684BB318
:10699000D1F8044517490968641A24F07F442F464A
:1069A0001A68A24209D8A41A15441A7CDE691AB1E1
:1069B0001F74D3E905209047AEB90F4B0F4A1978E1
:1069C00013788B4205D10133DBB2022B08BF0023C1
:1069D000137012780A4B43F822500A4B4FF480127E
:1069E000C3F80021F8BD3346DAE700BF00100140CC
:1069F000F8AF0020F4AF0020F0AF0020F1AF00208E
:106A0000E8AF002000E100E02DE9F74F9C4A9D49E6
:106A1000137809789C4D99423CD00133DBB2022BAC
:106A200008BF0023137099491278994B0F6853F8E7
:106A300022003B1823F07F4300220B602B68164690
:106A40001446944613B942B12B6006E0196881429E
:106A50000ED902B12B60091A19604FF001082B689A
:106A6000DFF834A200930027BEB9DFF834B260E04B
:106A7000401A0C44D968C3F800C0D3F81CE031B107
:106A80003A1922F07F42C3E90121DE611E4601224C
:106A90007346D7E70026B046E1E73446F6697B4AFD
:106AA00063681268DFF8FCC1A068991A21F07F4181
:106AB000614500F2A58001442160012222742A6808
:106AC0000023C4E90133E361002A40F0A2802C6076
:106AD000CAE75A1C9BF80210D2B291428BF80020F0
:106AE00004BF00228BF80020182202FB03B32A689F
:106AF00019799C68022974D003297ED0012918D104
:106B0000217CB1B9DA6862601A69A2605A69E260F0
:106B10009B69A3615F4B1B78002BC0D06160BEE70F
:106B20009C4200F090809946DB69002BF8D100234D
:106B300023749BF800309BF801209A42C9D12B683E
:106B40002FB9009A934202D1B8F1000F43D0002B25
:106B500041D0D3F800A0504D4C4BD5F804751C68BB
:106B6000DFF844813E1B98F8003026F07F4603365C
:106B70009BB94FF48033C5F84433C5F80433474B11
:106B80004FF400324FF00109C3F880211A60C5F8B4
:106B90000090FFF7E3FE88F80090B2452CBF544404
:106BA000A41924F07F44C5F84045D5F80435DB1B13
:106BB00023F07F43E41B033324F07F44A3420AD92C
:106BC000D5F80435C5F84035FFF7C8FE334B4FF410
:106BD0000032C3F800212F4B00221A7003B0BDE829
:106BE000F08F13469146A0E71174D2690123002A61
:106BF000FAD1002B9DD02A609BE700231946F6E7C7
:106C0000D31A23F07F43834234BFC31A0023236087
:106C100053E721681368994213D8591A1160E26149
:106C200055E7091AD8691A4638B1034618688842E8
:106C3000F7D3401A1860184613462160E061DC6102
:106C400012E71346F2E74C450DD1D3692B6053B9D7
:106C50000E4801920121CAF8081003600D4B19700B
:106C6000FFF77CFE019AE1692368C9F81C1011B195
:106C7000086803440B602B689A4218BF012756E747
:106C8000F0AF0020F1AF0020F8AF0020F4AF0020FB
:106C9000E8AF0020E4AF00200010014000E100E078
:106CA000D8AE0020FEFF7F00E5AF00202DE9F743BE
:106CB0001D4FBB7805460E4690469BB390B3042902
:106CC0002ED9436973B3437C02A80024012B00F83A
:106CD000014D0CBF8946A14600F04AF80DF10600AF
:106CE000FFF7FEFDD0B101230370104B4560D3F8D0
:106CF0000435C0E90498C0E902369DF806307B707F
:106D00009DF8070000F064F824B9094B4FF4801295
:106D1000C3F80021204603B0BDE8F0830424EFE768
:106D20000724F7E70824F5E7D8AE0020001001405B
:106D300000E100E0064A92783AB130B1426922B1EE
:106D4000002202740221FFF7E1BD0820704700BF56
:106D5000D8AE0020EFF30583C3F308032BB9EFF39C
:106D60001480C04300F0010070470120704700000C
:106D700070B50446FFF7EEFF012803D01049432009
:106D800002F062FFEFF3108672B60E4A906801239C
:106D900098B993600C4B0D4DD3F8801029401160C9
:106DA000C3F88050D3F8841051604FF0FF32C3F81D
:106DB0008420207006B962B670BD2370FAE700BF68
:106DC00086000300A0BA002000E100E0FC06FFBD41
:106DD00010B50446FFF7BEFF012803D00949512032
:106DE00002F032FF084B9A685AB154B9EFF31081A0
:106DF00072B6064A18681060586850609C6001B905
:106E000062B610BD86000300A0BA002000E100E0D9
:106E1000024B1B680021986803F00ABABC98002056
:106E20001EF0040F1CBFEFF309800AE0EFF30880A7
:106E30000549064A884201D8904202D88D464FF053
:106E40000000034B184700000000012000E0002074
:106E5000556E02002DE9F347054600F0ABFF00F048
:106E6000CDFD0028FBD12F4B2F4C9F6A2F4BE41AEE
:106E7000E408240444F00104002D4ED0AA692C49F2
:106E8000204600F03FFFEB680193AB68009329496F
:106E9000D5E90023204600F055FFEB690093264911
:106EA000D5E90423204600F041FF1E4BDB6A98071A
:106EB00003D52249204600F021FFDFF89490DFF847
:106EC00094A000264FF0010808FA06F33B4206D0D2
:106ED00059F826201AB15146204600F013FF01361A
:106EE0001A2EF1D1390605D50E4B15495A6B20469D
:106EF00000F008FF3A0405D50A4B12499A6B204668
:106F000000F000FF104B1B68DB0700D500BE2846D1
:106F1000FFF7AAFB02B0BDE8F0870C49204600F05D
:106F2000EDFEC2E700ED00E0F0170300801703005C
:106F3000DB000300F00003002501030080010300D3
:106F4000CF010300EF010300F0ED00E04D0103006D
:106F50000C020300C401030050E8002F0B4640E878
:106F6000003C9CF0000FF7D11046704750E8003FFE
:106F700043EA010240E8002C9CF0000FF6D11046D5
:106F8000704750E8002F02EA010340E8003C9CF003
:106F9000000FF6D11046704750E8003F03EB0102A6
:106FA00040E8002C9CF0000FF6D11046704750E8E6
:106FB000003FA3EB010240E8002C9CF0000FF6D14B
:106FC000104670470121FFF7D1BF0021FFF7D9BF5D
:106FD00010B50446002834D003681BB91A49FF20B5
:106FE00002F032FE636823B917494FF4807002F053
:106FF0002BFEA36823B9144940F2011002F024FECD
:10700000E36823B910494FF4817002F01DFE238A12
:1070100023B90D4940F2031002F016FED4E9012312
:1070200021689B1ADBB20A60013BDBB2FF2B2268AE
:1070300002D10020107110BD1168481C10600B7047
:10704000F2E70E20F7E700BF3407030037B5054627
:1070500020B914494FF4927002F0F6FD02A8002402
:1070600000F8014DFFF784FE2A68696813688B42B7
:1070700010D9591E116013F8014C2A8AEB6802FBE3
:1070800004342A68AB6811685B1A1179DBB2994243
:1070900038BF13719DF80700FFF79AFE204603B032
:1070A00030BD00BF3407030037B50C46054620B994
:1070B000104940F2471002F0C7FD24B90D494FF4C2
:1070C000A47002F0C1FD02A8002300F8013DFFF703
:1070D0004FFE2A681368591C1160EA68A41A2A8AAC
:1070E000B4FBF2F41C709DF80700FFF771FE03B0CB
:1070F00030BD00BF3407030038B5084C04F1080365
:107100000546002818BF1C4623682BB11A68226068
:107110005B6828469847F7E738BD00BF04B00020F9
:1071200020B9054B01225A70FFF7E6BF012802D1B2
:10713000014A9070F8E77047FCAF002020B9034B7C
:1071400001225A70FFF7D8BF704700BFFCAF002084
:1071500038B50B4C237883B90A486360A360236178
:10716000E36001F09BF8054602F026FC08B901F047
:10717000ABF801232370284638BD8525FBE700BF07
:10718000FCAF00202171020013B5154C237823B900
:1071900014494FF4857002F057FDE36823B9114993
:1071A00040F20B1002F050FD02A8002300F8013D50
:1071B000FFF7DEFDE368013BE360E36853B902F0EB
:1071C000FBFB18B10749792002F03EFD01F09AF867
:1071D0000023A3709DF80700FFF7FAFD02B010BD71
:1071E000FCAF002084070300012813B509D003D3A6
:1071F00003281BD002B010BD134B0122C3F880201E
:10720000F8E702A80023114C00F8013DFFF7B0FD9C
:1072100023780BB9FFF79CFFE3689DF80700013363
:10722000E3600123A370FFF7D3FDE3E7074B1B786F
:1072300023B9074940F2452002F006FD01F044F869
:10724000FFF7A2FFD6E700BF00E100E0FCAF00209F
:107250008407030010B5044618B90649312002F02E
:10726000F3FCA2682AB1636921682069984700236A
:10727000A36010BDD90703000EB433B5059D0446C5
:1072800018B91249422002F0DFFC63691BB90F49AB
:10729000432002F0D9FC23681BB90C49442002F0BA
:1072A000D3FC63681BB90949452002F0CDFC3DB110
:1072B00002AA06AB42F8043D2946204600F06EF8CB
:1072C00002B0BDE8304003B0704700BFD9070300EB
:1072D000826830B40468551C8560A154D0E901323D
:1072E0009A4202D330BCFFF7B5BF30BC70470000F4
:1072F0002DE9F84F9946DDE90A431746824688464C
:107300000A460126BA420FD24E4538BF4E4613F008
:10731000010B01D164B900240125B9F1010F1AD97B
:1073200009F1FF397D43F8E7B2FBF7F20136E9E7EF
:107330009B070ED5B9F1000F0CBF30252025A642C2
:10734000EAD2013C29465046FFF7C2FF002CF6D195
:10735000E1E72025F3E7B8FBF5F39F42E2D9DFF838
:107360003890B8FBF5F3504619F8031005FB138865
:10737000FFF7AEFFB5FBF7F5002DF2D1BBF1000F23
:1073800002D00CB1A64201D3BDE8F88F20215046AF
:10739000013CFFF79DFFF4E71F0803002DE9F74FBD
:1073A0000E469046054620B9AC494FF4A27002F053
:1073B0004BFC6B6923B9A9494FF4A37002F044FC5C
:1073C0002B6823B9A54940F2471002F03DFC6B68D9
:1073D00023B9A2494FF4A47002F036FC002E00F04D
:1073E0003A8116F8011B002958D0252940F0D18098
:1073F000002702E047F001071646324612F8013B2B
:107400002D2BF7D0302B04D02B2B05D147F00407C0
:10741000F2E747F00207EFE700242A2B06F101020A
:107420001BD1D8F80030191DC8F800101B6816468B
:107430001C4433782E2B1CD101364FF0000A314604
:1074400011F8012BA2F13000092814D80A2303FBFC
:107450000A23A3F1300A0E46F1E712F8013CA3F12A
:1074600030010929E5D80A2101FB0434303C1646D5
:10747000D3E74FF0000A324612F8011B01F0FB007F
:1074800068281646F8D0692916D054D8582970D0E3
:107490000ED825297DD03378002BA2D12B7B002B51
:1074A00000F0D980284603B0BDE8F04FFFF7D2BE08
:1074B000632968D06429EED1D8F80020111DC8F8DE
:1074C0000010D2F8009089EAE972A2EBE9724FF05D
:1074D000010B092A61DCD34538BFD3462CB1B9F181
:1074E000000F01DB790700D5013CBA0702D5BAF1DC
:1074F000000F04D0FB0702D4002C54D10024B9F1B2
:10750000000F58DAC9F100092D212846FFF7E0FEE7
:1075100007F00302022A05D1BAF1000F02D1002CB4
:107520004DD10024CDE9004753460A22494628465A
:10753000FFF7DEFEAFE7732954D016D87029AAD121
:10754000D8F800301A1DC8F80020302128461C68E1
:10755000FFF7BEFE78212846FFF7BAFE0022082377
:10756000CDE9003221461022E1E775292FD0782994
:1075700091D1D8F800100A1DC8F80020CDE90047C5
:10758000534610222CE0D8F800301A1DC8F800200D
:1075900019782846FFF79CFE7DE70A230BF1010BC3
:1075A00092FBF3F295E7A345A9D220212846013C9E
:1075B000FFF78EFEA0E77807AAD52B21A5E7A34504
:1075C000B0D230212846013CFFF782FEA7E7D8F869
:1075D0000010CDE900470A1DC8F8002053460A22D2
:1075E0000968A4E7D8F800301A1DC8F80020F90788
:1075F000D3F8009012D54F46A7EB090B17F8011BE3
:1076000041B9A345BFF447AF20212846013CFFF70D
:107610005FFEF6E72846FFF75BFEEDE7B9F1000FE6
:1076200017D0484602F02CFF0746BC4200D954B997
:1076300009F1FF3919F8011F00293FF42CAF284642
:10764000FFF746FEF6E720212846013CFFF740FE03
:10765000EBE74F46E9E703B0BDE8F08F2F080300E2
:107660007047000007B5044B0093044A402300F024
:1076700032F803B05DF804FB8176020011B00020FF
:107680002DE9F84389461446B2B10F4B0F4E03253E
:10769000002743F00108224609EB07010020FFF70D
:1076A000B5F80744241A48B933782BB14FF47A401F
:1076B000C047013D02D13570BDE8F8830123337026
:1076C000002CE8D1F8E700BF9008030010B00020BC
:1076D0007047FFF7EDB8F0B595B01C461646084662
:1076E0000D4600F032FD1A9B0D93CDE9086400248D
:1076F0002346082205A928460A948DF82C400C94AC
:1077000000F04CFD079B0293BDF81830ADF80C302B
:10771000BDF81A30ADF80E309DF814308DF81140D8
:1077200003F00302012A1DD1BDF81440059EC3F3E6
:10773000C203C4F383148DF81030A20008230EA9ED
:10774000284600F02BFDC6F3952608AB0093224691
:1077500002AB0EA9304600F09DFB284600F0F9FC74
:1077600015B0F0BD022AF8D1BDF81640C3F3C2032C
:10777000A4098DF810300827082C264628BF0826B3
:107780003B4632460EA9284600F008FDA41B08AB74
:1077900002AA31460EA8374400F0E0FB002CEBD1E2
:1077A000DBE7000008B5FFF794FF0421064800F06E
:1077B000D7FA002803DA0549412002F045FA044BC4
:1077C00001225A7108BD00BF94180300A4080300E9
:1077D000A8980020037813F0040216D003F00303E6
:1077E000012B03D0022B09D0012070470A680088C2
:1077F0000232C0F3831002440A60F5E70B68428846
:10780000023303EB92130B60EEE710467047000063
:107810002DE9F04F89B00646871C08A8484C009215
:1078200000230D4600F8113DFFF7A2FA23682B60F4
:10783000D4E901231344226801339B1A04F21C4843
:1078400004F5836B04F21449BB421AD3009A002357
:10785000002A6DD0012262F3010343F0040366F3B2
:1078600089132168A2689DF80F000A4003320F4473
:1078700044F822302760FFF7ABFA012009B0BDE8D9
:10788000F08F01214046FFF787FB5846FFF79AFB30
:107890000DF1200A4846FFF795FB60684AF8100D85
:1078A000A5682840033004EB80005146FFF792FFA3
:1078B00002460498002AF4D105EA000304EB83038E
:1078C000811CDB6805930130054004EB850503F05E
:1078D0000303012B0491ED6823D0022B08D0194932
:1078E00001924FF4BF7002F0AFF9019A154607E01C
:1078F000BDF816309B0903332D0C01EB9303049361
:107900004846FFF762FB08B1049B63602946404686
:10791000FFF742FBD4E901231344226801339B1A89
:1079200092E7BDF81430C3F383132D0C0B44E6E744
:10793000022262F3010343F0040366F39F5390E7CE
:1079400024B10020130903000B4B0C48FF2210B593
:107950009A600022C3F81824C3E90022C3F8142453
:10796000012283F8202400F0A9FB044610B9044842
:1079700000F02AFC204610BD24B10020201803008E
:107980006C09030030B50A4C71B10A4A0A49121B4E
:10799000D20800239A4201D1002030BD31F8235093
:1079A000854202D00133F5E7034654F83300F4E78B
:1079B000801703002018030078A20020094B01392A
:1079C00003EBC000032909D8DFE801F00A0204062E
:1079D0000420704700797047407970470020704755
:1079E0000220704780170300034BD3E90030C31A0D
:1079F00058425841704700BF24B100202DE9F043A0
:107A000087B0FFF7F1FF0646002840F0FC807F4D6D
:107A1000C5F81804BFF34F8F6868AC6806AF47F825
:107A2000100D2040033005EB80003946FFF7D2FEF1
:107A3000029B18B1D5F81824002A5FD004EA03028B
:107A4000991C013305EB8202234005EB8303D268C6
:107A5000DB68049302F00303022B0392029162D1CC
:107A6000BDF80E306A484FEA9318B8F1500FC1467E
:107A700028BF4FF0500969F38F1309F10801ADF8E1
:107A80000E3000F033FB0746002800F0A78000F01E
:107A90005CFB03A900230822384600F069FB029929
:107AA00024EA01060136B600B14535D95FFA89F9F5
:107AB0007EB3F6B2A9EB0609214003315FFA89F4DF
:107AC000B146544E05EB810108234A46384600F082
:107AD0004FFB36B109F1080322463146384600F023
:107AE00047FB029B08F1030803EB98030293D5F8C8
:107AF0001834002B4BD1D5F810445BE02A689A4229
:107B000004D86A60304607B0BDE8F08304EA030099
:107B100088E740493446D7E72140033108234A46E5
:107B200005EB8101DAE7012B58D1BDF80C3038485C
:107B3000C3F38311062928BF062161F3891302319B
:107B40008900ADF80C3000F0D1FA0746002845D086
:107B500000F0FBFA0023082203A9384600F008FBD6
:107B60000026BDF80C20C2F38312B31C96424FEAE4
:107B70008303BCD202994A1C21400331029205EBD7
:107B800081010422384600F0F3FA0136E9E738466D
:107B900000F0DFFAFFF728FF80F00100C6B2B1E77E
:107BA000E3685B7923B1236839461B682046984710
:107BB000E3681C68002CF3D1384600F0CAFA06A826
:107BC00000F8114DFFF7D4F8D5F818340BB9029B23
:107BD0006B609DF80700FFF7FBF8DBE7D5F8104472
:107BE00054B90D4B0D480E49C01AC008000440F0AE
:107BF000020000F083F8CDE7236820469B68984791
:107C0000E3681C68ECE700267CE700BF24B1002095
:107C10002018030030B1002080170300E017030094
:107C2000780903002DE9F74F2F4C80460F46914607
:107C300001A9012218469B46D4F808A0FFF7E8FDE9
:107C400000283DD0019D0026A91C5E4506EB0102DF
:107C500040D100212548FFF77FF980F3100B244B1A
:107C6000244A4FEA18499B1AB9EBD30F04D322498F
:107C700040F2A31001F0E8FF6B1C03EA0A0304EBD7
:107C8000830349EA0B42DA6005EA0A030333012160
:107C900014F8232068F3C50204F8232034F82320C5
:107CA00066F3891224F8232054F8232067F39F22D7
:107CB00044F8232061F301026FF3820204F82320C9
:107CC00094F820341BB1FFF799FE0028FBD103B0D4
:107CD000BDE8F08F0AEA020204EB820259F826306E
:107CE000D3600136B1E700BF24B1002040B50020C9
:107CF00020180300801703001309030000231A460D
:107D0000FFF790BF13B502AC012344F8042D2246BF
:107D1000FFF788FF02B010BD07B5CDE900230223AD
:107D20006A46FFF77FFF03B05DF804FB1FB5CDE99E
:107D30000123069B039301AA0323FFF773FF05B0FA
:107D40005DF804FB1FB5CDE90023069B0293079B5A
:107D500003936A460423FFF765FF05B05DF804FB53
:107D600030B5134AD2F810440023214651B9C468F3
:107D70002371D2F810445CB9C2F81004C2681160D3
:107D8000184630BDC9680D799D420AD00968EDE7F3
:107D9000E468C16824680C60D2F81024D2681060CE
:107DA000EEE701330A2BE0D14FF0FF33E8E700BFE5
:107DB00024B1002038B5094A0123D2F8104482F8D2
:107DC00020341D4604B938BDE3685D712368204640
:107DD0005B689847E3681C68F4E700BF24B10020A3
:107DE00010B5037A052B0C460FD0437A23B1084A0D
:107DF00008492046FFF740FA07492046FFF73CFABA
:107E00002046BDE81040FFF725BA002AF8D0F3E776
:107E1000C3090300C8090300E809030073B5C38858
:107E200004460D4633B1144A00921449144A2846B8
:107E3000FFF722FA217A05291CD0637A4BB1A0887A
:107E4000FFF7BCFD0F4B104953F820202846FFF7E1
:107E500013FA227A0D4BA08853F822600021FFF715
:107E600091FD0B4903463246284602B0BDE87040FA
:107E7000FFF702BA02B070BDC3090300D3090300C3
:107E8000CB09030090090300C8090300F8090300A7
:107E9000EB0903002DE9F04385B01F460C9D00233C
:107EA00006460C46904695F80C902B7329463846AA
:107EB000FFF7B4FFB8F1060F09D8DFE808F00412A5
:107EC000181F2833400031462846FFF7D5F9002215
:107ED00029463846FFF784FF85F80C9005B0BDE8C9
:107EE000F083226831462846FFF7C6F9EFE7D4E968
:107EF000002331462846FFF7BFF9E8E7A36800935F
:107F00003146D4E900232846FFF7B6F9DFE7E368F6
:107F10000193A36800933146D4E900232846FFF774
:107F2000ABF9D4E723690293E3680193A368009354
:107F30003146D4E900232846FFF79EF9C7E7636975
:107F4000039323690293E3680193A3680093314686
:107F5000D4E900232846FFF78FF9B8E708292DE96F
:107F6000F84F80460E4617461C4635D8002593F834
:107F70000C901D7319461046FFF750FFDFF88CA0D8
:107F8000DFF88CB0AE4229D918F8052059462046B2
:107F9000FFF772F90135082DF4D11A49DFF874B0F2
:107FA0002046FFF769F94FF0000A564524D918F822
:107FB0000A507E2D17D92E2259462046FFF75CF92C
:107FC0000AF1010ABAF1080FEFD101222146384621
:107FD000FFF706FF84F80C90BDE8F88F5146204665
:107FE000FFF74AF9D6E702F007F82844427812F082
:107FF000970FE0D02A46DFE703492046FFF73CF918
:10800000DEE700BFBE090300BC090300BA09030094
:10801000B4090300C00903002DE9F74F99469DF804
:108020003030019388461746054618B92249B620D4
:1080300001F00AFEEA8895F805B00BFB02FBABF1F4
:10804000040BCB4503D81C49C42001F0FDFD3E685C
:10805000B5F806A006EB09025A4509F1040188BFEC
:10806000ABEB0906B1FBFAF43E600AFB141144B90C
:10807000AAEB0107B74228BF37462EB903B0BDE8C7
:10808000F08F2D68013CF2E7019A043108EB0403FC
:10809000681872B101463A461846F61B01F0D0FF47
:1080A000B2453C442D6857464FF0000128BF374683
:1080B000E3E73A461946F0E7570A0300FEF788BFA0
:1080C000F8B546790146721E0546002393422D6895
:1080D00003D30024A64202D8F8BD0133F6E70F68A7
:1080E0002846FEF7E1FF01343946F3E72DE9F8436E
:1080F000CD1C068A0746FEF7A9FF043E3544044618
:10810000B5FBF6F5F0B14FF48073EDB28380C68015
:10811000013D076081464FF00008A84512D238465D
:10812000FEF794FF064648B163790133637108F1A5
:108130000108C9F8000007608146EEE72046FFF716
:10814000BFFF34462046BDE8F88301210430FEF726
:1081500023BF10B5012104460430FEF728FF10F0BC
:10816000FF0F04D12046BDE81040FFF7A9BF10BDA6
:1081700030B585B0144604AA002542F8044D009598
:10818000FFF74AFF039BA34203D00349F62001F007
:108190005BFD05B030BD00BF570A030030B585B0A8
:1081A000144604AA012542F8044D0095FFF734FF58
:1081B000039BA34204D003494FF4807001F044FDB7
:1081C00005B030BD570A03008268002393608268BF
:1081D0001361826853618268D360826853608268E9
:1081E0001360704738B50D46044618B90849502049
:1081F00001F02AFD1DB90649512001F025FD256039
:108200002B6863606A68934204BF0023636038BDD3
:10821000B00A030010B5044618B90B49632001F0F9
:1082200013FD23681BB90849642001F00DFD636844
:1082300043B1226891680B4463605268934204BF63
:108240000023636010BD00BFB00A03000D4930B5C4
:10825000A1F594720225914201D800200EE08B1AFC
:10826000DB1093FBF5F302EBC30452F83330834287
:1082700005D802D204F10802EDE7606830BD21465E
:10828000E9E700BF540C030008B5FFF7DFFF024B1E
:10829000002808BF184608BD190B030010B5044696
:1082A00018B90749A02001F0CFFC064B187920B976
:1082B00001221C601A71587110BD8520FCE700BFB7
:1082C0000E100300E0B5002008B50B4B1B791BB95D
:1082D0000A49B92001F0B8FC094B1A68D2075FBF00
:1082E000E02283F8002301221A604FF0804301222C
:1082F000C3F8182508BD00BFE0B500200E1003002C
:1083000000E100E008B5084B1B791BB90749F320D1
:1083100001F09AFC064B01221A604FF08042D2F81D
:108320001834DB03FBD408BDE0B500200E100300B9
:108330000C00004007B5154B1A687AB100221A608C
:108340001B680093009B4FF080430122C3F8082371
:108350000F4B587910B95A711B6898470D4B1A6822
:1083600082B100221A601B680193019B4FF0804389
:108370000222C3F80823064B1B68012003B05DF8F6
:1083800004EB184703B05DF804FB00BF0001004098
:10839000E0B500200401004000F1804000F5C0403D
:1083A000002382B0036003680193019B02B0704711
:1083B000054B4FF0FF32072843F8202084BF1B18DD
:1083C00083F84820704700BFE8B5002002494FF409
:1083D000F37001F039BC00BF611003001F2838B5ED
:1083E00004460D4601D9FFF7F1FFA00000F1A040BF
:1083F000D0F8003723F44033C0F80037D0F8003706
:1084000043EA0543C0F8003738BD000010B5164CEC
:1084100094F8583033BBFF21E2180133202B82F847
:108420003010F9D10021C8B2FFF7C2FF01310C2989
:10843000F9D1042200210D4801F09CFE0C4BE022F2
:1084400083F8062340221A604FF4BE70FFF7A4FFA2
:10845000084B4FF00042C3F80423012384F858303E
:10846000002010BD0820FCE7E8B500203CB6002045
:1084700000E100E000600040034B93F8580000303A
:1084800018BF0120704700BFE8B500201F2870B555
:1084900004460D4604D941494FF4987001F0D4FBCD
:1084A0003F4E96F85830012B04D03C4940F2311031
:1084B00001F0CAFB25B939494FF4997001F0C4FBAA
:1084C000331993F93020013265D1AA78002A54D0AB
:1084D000002356F8231001314FEA830248D13119A5
:1084E00002F1804281F83030002102F5C04246F8A6
:1084F0002310D2F810052B78697820F498101B040B
:10850000090520F4F85001F4801103F44033C2F857
:1085100010050B432102D2F8100501F4F8510B436A
:108520000343C2F810356B78012B4FF0010528D1B9
:108530001F2C01D9FFF74AFF4FF0A043A540C3F815
:1085400008551F2C01D9FFF741FF04F5E0724FF0E9
:10855000A043032143F82210E2081249012304F04A
:10856000070403FA04F48B5C1C438C54002003E0E2
:108570000133082BADD1042070BDFE2283F83020DA
:10858000D1E71F2C01D9FFF721FF4FF0A043A540F1
:10859000C3F80C55D5E70820EEE700BFA410030090
:1085A000E8B500203CB600201F2838B5054604D9A0
:1085B00012494FF4BE7001F047FB114C621992F959
:1085C0003020013204D10D4940F27D1001F03CFB16
:1085D000631993F83030072B04D808494FF4BF7063
:1085E00001F032FB1F2D01D9FFF7F0FE012303FA42
:1085F00005F54FF0A043C3F8085538BDA41003009B
:10860000E8B500201F2838B5054604D912494FF4B3
:10861000C37001F019FB114C621992F9302001323C
:1086200004D10D4940F2871001F00EFB631993F855
:108630003030072B04D808494FF4C47001F004FB14
:108640001F2D01D9FFF7C2FE012303FA05F54FF0F4
:10865000A043C3F80C5538BDA4100300E8B50020B2
:108660002DE9F04F87B000245B4A5C4E5C4D0394CB
:1086700001211368A2F5C040012B80B206D1D6F8C3
:1086800004330B4202D0FFF787FE0C430432AA42A8
:108690004FEA4101EDD1534B1B68012B0AD14FF436
:1086A000BE70FFF779FE4FF0A04344F00044D3F8CA
:1086B0001035039314F0FF0F1AD04B4F00250126FD
:1086C000344210D0AB0003F1804303F5C043D3F82C
:1086D0001005D3F8101557F82530C0F30420C1F366
:1086E000014103B198470135082D4FEA4606E7D10D
:1086F000002C6EDA00224FF0FF33CDE904233A4F0D
:108700004FF0000A56464FF0A04907EB0A0393F9D1
:108710005040631C46D0E4B2012224F0C00504F0AE
:10872000070B02FA0BFBEB0806AAD11811F8042C70
:1087300012EA0B0F36D07A19A40992F9302057F8B3
:108740002280B8F1000F0AD1032C2BD10DF1100CAF
:108750001CF8030040EA0B000CF8030001E0032CB6
:10876000F4D01F2D03D90191FFF730FE019911F8C4
:108770000C1C05F5E07311EA0B0F59F82330C3F315
:10878000014320D0022B0DD1032C05D121462846D0
:10879000FFF724FE0136F6B2B8F1000F02D02146F1
:1087A0002846C0470AF1010ABAF1040FADD186B1DB
:1087B0004FF0A043039AD3F810359A4209D003939F
:1087C000049B05939CE7032BECD1032CE4D10221FD
:1087D000DDE707B0BDE8F08F0061004000600040B9
:1087E000206100407C610040E8B5002010B5054CD8
:1087F00022681AB90449512001F026FA2368BDE81D
:108800001040184744B60020FD10030000234350D9
:1088100082B043580193019B02B0704770B5D0F805
:10882000103105460C4653B14FF48871FFF7EEFF47
:1088300063795A0703D523680BB101209847D5F80F
:1088400014315BB14FF48A712846FFF7DFFF63797B
:108850001B0703D523680BB102209847D5F81C31BC
:108860005BB128464FF48E71FFF7D0FF607910F0AE
:10887000100002D1236803B19847D5F8043163B1E1
:108880004FF482712846FFF7C1FF0123237123684B
:108890001BB10320BDE87040184770BD0149024874
:1088A000FFF7BCBF4CB6002000C0014001490248A0
:1088B000FFF7B4BF54B6002000100240014902483F
:1088C000FFF7ACBF5CB600200020024000F1804002
:1088D00000F5E040002382B0036003680193019B30
:1088E00002B07047F0B5514B514C1B6885B0DBB1FD
:1088F0004FF4827094F82E20FFF7E8FF12B194F83D
:108900002F30A3B1636802932389ADF80C30E3687C
:1089100000218DF80410002B44D12374236801A892
:108920009847002384F82F3094F82E3003B3414B3E
:108930001B68EBB14FF48070FFF7C8FF94F82D204F
:10894000638B91B28B4238D95B1A21899BB26383C6
:10895000CB1A616801EB4301374BC3F82C16C3F8FF
:1089600030264FF48270FFF7B1FF344B01221A60BA
:10897000334B1B685BB14FF48870FFF7A7FF0023F0
:1089800004A82374022300F80C3D236898472D4B5C
:108990001B6813B34FF48A70FFF798FF002323740A
:1089A00005B0F0BD208B608363602081E160002A08
:1089B000B4D1214B01221A60B0E7D2D1E368012182
:1089C00084F82F103BB1002161831B49C1F82C367C
:1089D000C1F83026C5E76383C3E766694FF00047F7
:1089E0000125002EDCD0B6FA86F227FA02F34632D1
:1089F000920026EA030602F1804303F5E0431B6878
:108A0000002BEED01046FFF761FFA2F58C72D30861
:108A100082F00402C2F380028DF808308DF8045011
:108A20008DF80920236801A89847DAE7047100400F
:108A300064B60020007100400070004004700040E7
:108A4000107100401471004002494FF4F37001F0BE
:108A5000FBB800BF611003001F2810B5044601D900
:108A6000FFF7F2FF012303FA04F44FF0A043C3F829
:108A70000C4510BD1F2810B5044601D9FFF7E4FFCF
:108A8000012303FA04F44FF0A043C3F8084510BDD6
:108A900013B54FF04023D3F818310BB3114B124CE0
:108AA00000221A601B680193019B236823B90F49B8
:108AB0004FF4277001F0C8F8E07FFF2803D0A37FB0
:108AC0005BB1FFF7C9FF002363772372D4E900315C
:108AD000074802B0BDE810401847FFF7CBFFF2E7A8
:108AE00002B010BD1841004094B600205A11030096
:108AF0009CB600202DE9F743002406460F4600F5FA
:108B0000A0754FF48038A14604F150002B68800016
:108B100080B26BB1D6F8043308FA04F21A4207D0D7
:108B2000C5F800902B680193019BD7E90031984765
:108B30000134042C05F10405E6D103B0BDE8F0834F
:108B400001490248FFF7D6BFB8B6002000800040B8
:108B500001490248FFF7CEBFC4B600200090004094
:108B60000023435082B043580193019B02B07047E9
:108B7000F0B5504C236887B023B94F4940F24520E7
:108B800001F062F84D4AD2F824311546A3B14FF4F2
:108B900092711046FFF7E4FFD2F8043163B9A3687D
:108BA000C2F808330223A360A368C2F80433012388
:108BB0001362536107B0F0BDD5F80431002B49D0E2
:108BC0003F4F3E484FF48271FFF7CAFF0FCF01AE0F
:108BD0000FC63B68336094F82E307BB1237B012BAA
:108BE0000CBFD5F83C25D5F84C250292022B334B0F
:108BF0000CBFD3F83C35D3F84C3503934FF4B07128
:108C00002E48FFF7ADFF4FF4AE712C48FFF7A8FFD9
:108C100094F8303013B194F82E303BB1274B00223A
:108C2000C3F80022A260274AC3F80823234AD2F8D7
:108C3000C434C2F8C4349A0736D501238DF8003005
:108C400094F830300BB984F82F30D4E900316846FD
:108C50009847AFE74FF4A4711848FFF781FF237BD3
:108C600083B9174F0FCF01AE0FC63B68336094F83E
:108C70003030002BDAD1C5F80032A360114BC5F8B3
:108C80000833D3E74FF40073C5F8003240F20223F3
:108C9000A36003F1CE73C5F80833A368C5F80433A5
:108CA0000123AB602B6285E713F0040318BF022396
:108CB000C4E700BFD0B60020B1110300003000406F
:108CC000DCB6002002029C011F2810B5044604D91E
:108CD00006494FF4F37000F0B7FF04F5E0744FF06D
:108CE000A043032243F8242010BD00BF61100300FD
:108CF0002DE9F0478946044618B95C49962000F0F2
:108D0000A3FFB9F1000F03D15849972000F09CFF51
:108D1000574F3B79002B40F0A780A579607A227CE1
:108D200075B9012803D1012A0AD107206EE0022873
:108D300006D1082A04D840F25513D340DB07F4D4F7
:108D4000E1684C4B94F807E094F808C0A67AC3F8A1
:108D50000455C3F824E5C3F820C5C3F81C05C3F8BF
:108D60002865C3F81825002952D1C3F81015A37936
:108D70002578002B52D12846FFF7A6FF6078FFF731
:108D8000A3FFA678FF2E66D03046FFF79DFFE5785B
:108D9000FF2D63D02846FFF797FF94F80480B8F1C1
:108DA000FF0F5ED0B8F11F0FC24604D932494FF40D
:108DB000F37000F049FF08F5E0784FF0A04300227F
:108DC00043F828202B4B21786278C3F86415C3F848
:108DD0006825C3F86065C3F87055C3F86CA564795D
:108DE000C7F80090A31E012B06D9631F022B03D9DD
:108DF00022496B2000F028FF214B6401E4B22022BD
:108E000083F825435A6001233B710020BDE8F087B9
:108E10000122C3F81415C3F81025A8E71F2D04D9A3
:108E200015494FF4F37000F00FFF4FF0A04305F524
:108E3000E075002243F8252066781F2E1D4604D9D0
:108E40000D494FF4F37000F0FFFE06F5E0760023C5
:108E500045F8263095E74FF0FF3698E74FF0FF359D
:108E60009BE74FF0FF3AADE70820CFE70D12030074
:108E700004B70020005002406110030058120300A4
:108E800000E100E030B50D4685B0044618B94A4906
:108E9000D92000F0D9FE23682BB963681BB9464975
:108EA000DB2000F0D1FE236853B103F06042B2F141
:108EB000005F01D19A0703D03F49DE2000F0C4FED5
:108EC000636853B103F06042B2F1005F01D19B07C8
:108ED00003D03949E12000F0B7FE1DB93649E22040
:108EE00000F0B2FE354B1A79012A60D1226822B116
:108EF00002F06041B1F1005F5BD1616821B101F026
:108F00006041B1F1005F54D15979003218BF01229C
:108F100062F3000159716268DD80111C5A7918BF33
:108F2000012161F3410202F0F3026FF304125A715E
:108F300094E80300224A82E80300D3E90241214A6F
:108F40000020C3E90400C2F85055C2F83845241A7D
:108F500018BF0124C2F80845C2F84015091A18BF05
:108F60000121C2F80C1501240221C2F80045197133
:108F70001549086009680391039914490860096854
:108F80000291029912490860096801910199597981
:108F900001FA04F3090103F0020301F020010B437D
:108FA00043F00403C2F80433146005B030BD082058
:108FB000FBE71020F9E700BF0D12030004B7002003
:108FC0000CB70020005002400451024014510240EE
:108FD0000851024038B5334D2B79022B044604D09A
:108FE000314940F2231000F02FFE24B92E494FF4EE
:108FF000927000F029FE23685BB103F06042B2F189
:10900000005F01D19B0704D0274940F2271000F0F0
:109010001BFE63685BB103F06042B2F1005F01D1F7
:10902000980704D020494FF4957000F00DFE6B793D
:10903000D90633D5236823B103F06043B3F1005F51
:109040002ED1636823B103F06042B2F1005F27D1F3
:109050006A79920709D523B913494FF4A37000F038
:10906000F3FD124B6268C3F840256B79DB070AD524
:10907000236823B90C4940F24B1000F0E5FD0B4B7F
:109080002268C3F8382594E80300094B83E80300FD
:109090006B796FF304136B71002038BD0820FCE777
:1090A0001020FAE704B700200D1203000050024020
:1090B0000CB7002010B50B4C237923B90A494FF4A3
:1090C000AC7000F0C1FD63796FF304136371074B5B
:1090D0002222C3F80823064A0123136053639363D3
:1090E00010BD00BF04B700200D1203000050024065
:1090F00004500240F0B5394B394C1A6885B07AB14A
:1091000000221A601B680093009B637943F00803F8
:1091100003F01202122A637104BF43F0200363714B
:10912000304B1A687AB100221A601B680193019BC8
:10913000637943F0040303F01102112A637104BF41
:1091400043F020036371284B1A68B2B100251D60FB
:109150001B680293029B254B25480422C3F8082371
:10916000C3F80055236829469847236821482946B3
:1091700098470123237105B0F0BD637903F00F0216
:109180000F2A08D0D80701D4190704D462799207AE
:10919000F1D45B07EFD56379266803F0F30313F08E
:1091A000200708D003F0D30343F0100363710121BB
:1091B0000020B047DFE70E4A92E8030002AD85E8E1
:1091C000030012E9030043F0100382E80300C4E93E
:1091D0000277637101212846EBE700BF145102407A
:1091E00004B70020045102400851024000500240E0
:1091F00014B700200CB7002070B5C0B14AB1168872
:109200000024B44203D305196D789D4208D0A142D1
:1092100001D800200BE0055D01352C44A4B2F0E735
:10922000A142F6D9A31C1380005D013880B270BD45
:1092300037B502AC002324F8023D1346224605460A
:10924000FFF7DAFF10B1BDF80600284403B030BDC7
:1092500072DF704773DF704738B5012204460D4650
:10926000B0F83812D0F83402FFF7E2FF00B1057011
:1092700004F13C0204F50D7104F15400BDE83840DE
:10928000FFF7E6BFF8B5077804460D46002F00F05B
:10929000058100F24A26A17007220021304600F025
:1092A00069FFE38813B1A378012B04D0E3794BB1B4
:1092B000A378022B06D1636BA3B1012284F851225B
:1092C00008209847334604F5147113F8012F12B99A
:1092D0009942FAD117466B1E032B53D8DFE803F0EF
:1092E000050B0F1284F85132ECE7A3791BB194F807
:1092F000243003B95FB9E3790BB1002F44D1237A4D
:10930000002B43D1637A002B0CBF00250425636B2F
:10931000A570002B3CD0033D012D39D86279002A7D
:1093200036D094F85222002A32D184F854220122F5
:1093300084F853220720984704F13C0518220021A5
:10934000284600F017FFE36A94F824200121581EF4
:10935000884288BF0B4684F83C1084F8513032B103
:10936000884296BFA36A84F8521084F85230A178DC
:10937000002384F8503004291BD8DFE801F0770D72
:10938000223559000025C2E70225C0E70325BEE7C4
:10939000002384F85332CFE7C4F84432C4E91063A1
:1093A0000223012284F83C30802384F83120A4F881
:1093B0004830A378002B5CD1636B002B6AD100206E
:1093C00067E0022384F8313062B1072384F83C302F
:1093D0002369A4F848300023C4F84432E3682664C3
:1093E0006364E6E70323F1E763696364A369A4F8B0
:1093F000483012B1062384F83C306379B3B194F855
:1094000052329BB994F8543283B1022384F850301D
:1094100004212046FFF720FF0028CAD1052384F845
:10942000313004F50D73C4F84432C2E70323F6E784
:10943000E3696364236AA4F8483012B1062384F810
:109440003C30637983B194F852326BB994F854325A
:1094500053B1022384F8503004212046FFF7FCFE6C
:109460000028A6D10623DAE70423D8E784F83130B0
:109470009FE72A46D4F8441204F15400FFF7E8FEAF
:1094800038B994F8301094F85400FFF7E3FE002840
:1094900092D0F8BD94F83100984790E70820F8E79B
:1094A00010B50388112B0C460AD0262B1FD0102B89
:1094B00005D1C37B012B02D18388A1F8483210BDAE
:1094C000002381F852328288B1F848329A42F6D1AC
:1094D0000B79002BF3D101212046FFF7D3FE0028A2
:1094E000EDD0A36B002BEAD0BDE810401847037AFB
:1094F000013B012BE3D889780523013191FBF3F37C
:1095000003EB8303C91AC9B2E6E77047034B1A8815
:1095100082420CBF18460020704700BF38B70020B9
:10952000024B9B6903B11847704700BF1CB700206E
:1095300013B50B46497A0F4C024669B9D4E90110BC
:109540001C7A002C18BF01465868FDF7AFFB08B124
:10955000FFF7E6FF02B010BD002119726369002B0E
:10956000F8D00121ADF806008DF8041001A8984745
:10957000F0E700BF1CB7002030B583880588B3F53D
:10958000FA7F24BF6FF4F9729C184A8838BF002410
:1095900095420CD84088904209D38A88A24206D3CB
:1095A00003F2F310904234BF0020012030BD0020B0
:1095B000FCE7000070B50388112B014648D002D8A3
:1095C000102B1ED070BD122B52D0502BFAD12F4B26
:1095D000C288DB899A42F5D1038A022BF2D18688B0
:1095E0003046FFF793FF05460028EBD001F112004B
:1095F00000F050F830BB6868FDF79CFB0028E1D014
:1096000009E0C37B012BDDD14FF6FF70FFF77EFF32
:10961000054620B90420BDE87040FFF781BF8E8861
:109620001B4A0680002303721368C5F80A300A300B
:10963000536843601031FFF79FFF144B6872DB895A
:10964000002BBFD129463046BDE87040FFF770BF00
:109650008088FFF75BFF04460028B3D04068FDF721
:1096600069FB08B1FFF75CFF4FF6FF732380A9E7A2
:1096700086883046FFF74AFF05460028A2D0083109
:109680000A30FFF779FF6872DCE700BF1CB70020E3
:109690004CB70020007800F00100704790DF704761
:1096A000A5DF7047B5DF70477FB50023ADF8081020
:1096B000ADF80A106A4602A9064603930093ADF876
:1096C0000430FFF7EBFF0546F8B1114B114CE41ADB
:1096D000E408FEF7D9FD240444F0010403463246B1
:1096E0000D492046FEF718FBBDF80020BDF80230FA
:1096F00002B91BB109492046FEF70EFBBDF8042054
:109700001AB107492046FEF7FDFA284604B070BD9D
:1097100080170300F8170300A0120300EA120300E9
:109720002913030013B5034680880C46A0B91A8894
:10973000232A00F0AF8011D8102A25D0112A54D046
:10974000A37A4BB1E1880020FFF7AAFF002840F080
:10975000A7800123A072E37202B010BD3A2A4ED056
:10976000552A68D0242AEBD11A7A0B694A73002B48
:10977000E6D04DF67A21ADF80400ADF80010ADF852
:1097800002008DF8042081E00A790A73DB7B012B4B
:1097900013D0022B14D0E18823898B4205D20020FC
:1097A000FFF77EFF70B90123E372217B637B8B425D
:1097B000C6D20020FFF778FFC2E70B88E380EAE714
:1097C0004B88FBE7112802D10123A372EDE7FEF7D6
:1097D0005BFD3C4A3C4B3D499B1ADB081B0402469F
:1097E00043F00100FEF78EFADFE7F723CB80172363
:1097F0000B8141F6FB338872C8728B81A0E75B89CD
:10980000CA88934228BF1346172B0A6938BF17230B
:109810000B8162B1C97A51B140F67721ADF80010E1
:10982000ADF80200ADF804306946204690470023A9
:10983000E372A37284E7DB88C988A072172B38BF54
:1098400017238B4228BF0B462381FFF72BFF60B104
:10985000FEF71AFD1B4A1C4B1D499B1ADB081B0413
:10986000024643F00100FEF74DFAE27A002A7FF447
:1098700067AF2369002B3FF463AF40F67721ADF863
:1098800002202289ADF80010ADF804206946204678
:10989000984755E7197A237B994228BF194689E7EB
:1098A00011283FF459AFFEF7EFFC064A064B074973
:1098B0009B1ADB081B04024643F00100FEF722FA64
:1098C0004AE700BF80170300F81703007F13030067
:1098D000B0130300B0DF704766DF704710B5034672
:1098E00000214088FFF7F8FF024608B91A7210BD40
:1098F000112801D10122F9E75B68BDE81040184743
:1099000028B10378DE2B04D14180002070470E205F
:10991000704708207047F0B5054685B00C46F1B198
:10992000E8B10B78DE2B1AD182884B889A4204D199
:109930000B7A13B10846FFF7D1FF2B88112B32D0D9
:10994000512B0ED0012B0AD12B7A012B07D1A988DC
:109950006288914203D123722046FFF7BFFF05B012
:10996000F0BDAE886388B342F9D1AF79022FF6D14A
:10997000AD7B2B1F022BF2D800211022684600F08D
:10998000F9FB052D14BF4FF4C07300236946304620
:109990008DF80070ADF80430FFF79CFF0028DED092
:1099A00063689847DBE76388AA889A4204BF4FF64A
:1099B000FF736380D3E70000014B1878704700BF46
:1099C00054B7002007B508496846FEF70BFC019B19
:1099D00013B903B05DF804FBD3E900209047684653
:1099E000FEF718FCF3E700BFEC130300FFF7EABF34
:1099F00061DF704730B5134DADF5017D4FF4FA745A
:109A00000DF1020103A8ADF80240FFF7F1FF70B9B4
:109A1000294601A8FEF7E6FB029B002BF0D003A825
:109A2000D3E90021904701A8FEF7F4FBF4E70528ED
:109A300004D0054A40F23911FCF745FF0DF5017DD0
:109A400030BD00BF5414030000140300024B1B7808
:109A50000BB1FFF7CFBF704755B7002076DF7047D7
:109A60007FDF704786DF70478ADF70478FDF704780
:109A7000B1DF704733DF704737B503881D2B0446CD
:109A800000F0AC801DD8132B7CD00AD8102B3DD011
:109A9000112B5DD0604B13B12046AFF3008003B0B3
:109AA00030BD142B00F08C801B2BF3D1037A012BDB
:109AB000F0D1FFF7DFFF0028ECD0584A4FF4CC710B
:109AC0006DE0502B52D00ED8212B00F096803B2B0E
:109AD000E0D113218088FFF7C1FF0028DAD04F4A78
:109AE0004FF4D0715BE0522B5CD045D3562BD1D1D3
:109AF0008379002BCED14A4B13211888FFF7AEFF94
:109B00000028C7D0454A40F2A71148E0444D81885B
:109B100044482980FFF7F4FE20B1404A4FF49D717C
:109B2000FCF7D1FE00231A4619462888FFF7A0FF4C
:109B300020B13A4A4FF4A171FCF7C5FE3A4800F053
:109B400063FB3A4B002BA5D02046AFF30080A1E782
:109B5000334B37484FF6FF721A8000F055FB354BF8
:109B6000002B97D02046AFF3008093E7324B002BB9
:109B700090D0AFF300808DE7304B002B8AD0AFF34D
:109B8000008087E7264800231A4685210088FFF7D2
:109B900067FF00283FF47EAF204A40F28111FCF7B6
:109BA00092FE77E71E4800231A4619460088FFF701
:109BB0005FFF00283FF46EAF184A40F28711EEE7CE
:109BC000174800231A4619460088FFF74BFF002864
:109BD0003FF460AF114A40F29111E0E7184B0BB12E
:109BE000AFF3008017490020FFF73EFF00283FF445
:109BF00051AF0A4A40F2C711D1E702A9002321F868
:109C0000043D8088FFF732FF00283FF443AF034A4A
:109C100040F2D111C3E700BF00000000911403001F
:109C2000ACBA0020C4B90020C0140300000000003A
:109C3000D01403000000000000000000000000003D
:109C400000000000B098002038B50D4604460448D6
:109C500000F0DAFA2A4621460248FCF734FE38BD05
:109C60006C140300EFBEADDE0C4B1B78062B10D13D
:109C70000B4B1B681A070CD10A4B186800F0F00355
:109C8000302B08D000F0E000A0F1400358425841CA
:109C90007047002070470120704700BFE00F00F0C0
:109CA000E40F00F0E80F00F0094B1B78062B0CD1F5
:109CB000084B1B681A0708D1074B186800F0F00022
:109CC000A0F130035842584170470020704700BF50
:109CD000E00F00F0E40F00F0E80F00F008B5FFF728
:109CE000C3FF28B17D4B7E4A1B68C3F30423136076
:109CF000FFF7DAFF10B17B4B7B4A1A60FFF7B4FF26
:109D000028B17A4B7A4A1B68C3F342331360FFF7DA
:109D1000CBFF20B1774AD36823F08073D360FFF77D
:109D2000A3FF40B14FF080430022C3F80C21C3F8D9
:109D30001021C3F83825FFF7B7FF10B16E4B03228F
:109D40001A60FFF7B1FF40B16C4B05221A60012287
:109D50009A6700229A603F225A60694B1B78062B53
:109D600050D1684B1B6819074CD1674B1B6803F037
:109D7000F003502B46D14FF08052644BD2F80414BC
:109D8000C3F82015D2F80814C3F82415D2F80C141F
:109D9000C3F82815D2F81014C3F82C15D2F81414EF
:109DA000C3F83015D2F81814C3F83415D2F81C14BF
:109DB000C3F84015D2F82014C3F84415D2F824147F
:109DC000C3F84815D2F82814C3F84C15D2F82C144F
:109DD000C3F85015D2F83014C3F85415D2F834141F
:109DE000C3F86015D2F83814C3F86415D2F83C14DF
:109DF000C3F86815D2F84014C3F86C15D2F844249F
:109E0000C3F87025FFF730FF28B1414B414A1B686A
:109E100003F04F031360FFF727FF48B14FF0804373
:109E2000D3F80024D20744BF6FF00102C3F8002426
:109E3000394B1B68062B08D1384B1B68062B01BF1A
:109E4000374A136843F480631360364AD2F8883087
:109E500043F47003C2F88830BFF34F8FBFF36F8FA6
:109E60004FF01023D3F80022002A03DBD3F804328A
:109E7000002B2FDA2C4B0122C3F80425D3F8002441
:109E8000002AFBD04FF010221521C2F80012D3F89F
:109E90000024002AFBD04FF010231522C3F804221F
:109EA000214B1A46D3F800140029FBD00021C3F837
:109EB0000415D2F80034002BFBD0BFF34F8F1949A3
:109EC0001A4BCA6802F4E0621343CB60BFF34F8FB2
:109ED00000BFFDE7164B174A1A6008BD24030010A7
:109EE0004035014074C007400DF0ADBA4402001087
:109EF0003C050040F0ED00E0A00500401056004099
:109F0000E00F00F0E40F00F0E80F00F000C00040A8
:109F100058020010E40E004030010010340100101F
:109F20003C17004000ED00E000E001400400FA05AD
:109F3000B89800200090D0030649074A074B9B1AA7
:109F400003DD043BC858D050FBDCFFF7C7FEFCF72D
:109F500077F90000AC180300A898002078A2002030
:109F6000FEE7FEE7FEE7FEE7FEE7FEE7FEE7FEE7C9
:109F7000FEE7FEE708B50021044602F0EFF8044BC7
:109F80001868C36B03B19847204605F0A1F900BFDC
:109F9000E414030070B50D4E0D4D761BB61006D0BF
:109FA0000024013455F8043B9847A642F9D1094EE4
:109FB000094D761B05F0A2FFB61006D0002401342F
:109FC00055F8043B9847A642F9D170BD68A200201D
:109FD00068A2002074A2002068A20020044B054A59
:109FE0001B685B6B002B08BF134693F82801704772
:109FF000BC980020E89C0020044B054A1B685B6B62
:10A00000002B08BF1346D3F8EC007047BC98002023
:10A01000E89C002082B049B15AB16BB113780B6053
:10A020001278101C18BF012002B0704701A9002A45
:10A03000F3D1104602B070476FF00100F4E700BFA3
:10A04000844641EA000313F003036DD1403A41D343
:10A0500051F8043B40F8043B51F8043B40F8043B02
:10A0600051F8043B40F8043B51F8043B40F8043BF2
:10A0700051F8043B40F8043B51F8043B40F8043BE2
:10A0800051F8043B40F8043B51F8043B40F8043BD2
:10A0900051F8043B40F8043B51F8043B40F8043BC2
:10A0A00051F8043B40F8043B51F8043B40F8043BB2
:10A0B00051F8043B40F8043B51F8043B40F8043BA2
:10A0C00051F8043B40F8043B51F8043B40F8043B92
:10A0D000403ABDD2303211D351F8043B40F8043B32
:10A0E00051F8043B40F8043B51F8043B40F8043B72
:10A0F00051F8043B40F8043B103AEDD20C3205D342
:10A1000051F8043B40F8043B043AF9D2043208D039
:10A11000D2071CBF11F8013B00F8013B01D30B88AB
:10A1200003806046704700BF082A13D38B078DD089
:10A1300010F003038AD0C3F10403D21ADB071CBF5B
:10A1400011F8013B00F8013B80D331F8023B20F8C5
:10A15000023B7BE7043AD9D3013A11F8013B00F8FE
:10A16000013BF9D20B7803704B7843708B78837086
:10A1700060467047F0B4860743D0541E002A3ED094
:10A18000CAB2034602E014F1FF3438D303F8012BBE
:10A190009D07F8D1032C2BD9CDB245EA05250F2C0C
:10A1A00045EA054516D9A4F110073F0903F1200639
:10A1B00006EB071603F1100242E9045542E9025585
:10A1C0001032B242F8D104F00F040137032C03EB34
:10A1D00007130DD91E462246043A032A46F8045BAB
:10A1E000FAD8221F22F003020432134404F00304BD
:10A1F0002CB1C9B21C4403F8011B9C42FBD1F0BC3A
:10A20000704714460346C5E70FB400B5074983B04D
:10A2100004AB086853F8042B8168019300F0A0F99F
:10A2200003B05DF804EB04B0704700BFBC98002099
:10A2300000290CBF022200224FF4806300F000B816
:10A240002DE9F0435D4C256883B0044688461646E8
:10A250001F4615B1AB6B002B7ED0022E05D0012E10
:10A2600000F2A980002FC0F2A680636EDA0735D510
:10A270002146284603F03AF8216B41B104F140032E
:10A28000994202D0284603F02FF900232363B4F942
:10A290000C3000221806A261626061D423F44A6384
:10A2A00023F00303022EA3811FD10025616E00203D
:10A2B00004F1430243F00203A060C9074FF001001C
:10A2C000A3812260C4E9042004D49B0502D4A06DBC
:10A2D00003F03CFA284603B0BDE8F083A3899B0550
:10A2E000C6D4A06D03F030FAC2E701AB6A4621463E
:10A2F000284603F02DFAA3891843A081002F36D1F8
:10A30000009F384603F09CFA8046002842D0A3897B
:10A3100043F08003A381AB6B7BB3009AB4F90C309C
:10A32000C4F80080BA421CBF43F40063A381012E2D
:10A3300004BF43F00103A3819BB213F00802C4E9F8
:10A3400004871ED1A260656E15F00105BDD0002501
:10A35000284603B0BDE8F083284603F023F87CE7E5
:10A360002169284603F0C0F8B4F90C3096E7B8F13B
:10A37000000FC6D0AB6B002BCFD1284603F012F8EC
:10A38000CBE7DA0704D57F420022A761A260DAE7B3
:10A39000A760D8E7DDF80090B94504D1B4F90C30D6
:10A3A0004FF0FF3582E7484603F04AFA804600281E
:10A3B000F4D04F46ABE74FF0FF358BE7BC98002059
:10A3C00080EA0102844612F0030F4FD111F0030F0F
:10A3D00032D14DF8044D11F0040F51F8043B0BD06D
:10A3E000A3F101329A4312F0803F04BF4CF8043BC2
:10A3F00051F8043B16D100BF51F8044BA3F10132D0
:10A400009A4312F0803FA4F101320BD14CF8043B87
:10A41000A24312F0803F04BF51F8043B4CF8044BB8
:10A42000EAD023460CF8013B13F0FF0F4FEA332329
:10A43000F8D15DF8044B704711F0010F06D011F808
:10A44000012B0CF8012B002A08BF704711F0020FF6
:10A45000BFD031F8022B12F0FF0F16BF2CF8022BE1
:10A460008CF8002012F47F4FB3D1704711F8012B04
:10A470000CF8012B002AF9D1704700BF0000000042
:10A4800090F800F06DE9024520F007016FF0000C34
:10A4900010F0070491F820F040F049804FF00004DC
:10A4A0006FF00700D1E9002391F840F000F10800B7
:10A4B00082FA4CF2A4FA8CF283FA4CF3A2FA8CF3EF
:10A4C0004BBBD1E9022382FA4CF200F10800A4FA56
:10A4D0008CF283FA4CF3A2FA8CF3E3B9D1E90423AA
:10A4E00082FA4CF200F10800A4FA8CF283FA4CF3E1
:10A4F000A2FA8CF37BB9D1E9062301F1200182FA9B
:10A500004CF200F10800A4FA8CF283FA4CF3A2FAA0
:10A510008CF3002BC6D0002A04BF04301A4612BAAE
:10A52000B2FA82F2FDE8024500EBD2007047D1E9B1
:10A53000002304F00305C4F100004FEAC50514F040
:10A54000040F91F840F00CFA05F562EA05021CBF11
:10A5500063EA050362464FF00004A9E7000000002B
:10A560002DE9F04FD7B01C468946174605460390A3
:10A5700003F0D8F8036816931846FFF781FF089494
:10A5800015901DB1AB6B002B00F00781D9F864105A
:10A59000B9F90C20C80793B202D4990540F11F8184
:10A5A0009E040AD4D9F8641042F4005321F40051F7
:10A5B000A9F80C30C9F864109BB21D0740F1B280B5
:10A5C000D9F81020002A00F0AD8003F01A020A2A00
:10A5D00000F0C98000239FED867B1093CDE92B33DB
:10A5E0001793CDE919331B93189305932DAB2A9339
:10A5F0009B463B78CDF81C908DED127B002B00F034
:10A600005982252B3C4602D11DE0252B03D014F89E
:10A61000013F002BF9D1E51B8DB1DDE92B32013370
:10A620002A44072BCBF80070CBF80450CDE92B322D
:10A6300000F3CA800BF1080B059B2B44059323788C
:10A64000002B00F0378200236678069398468DF839
:10A650008B3004F1010A4FF0FF392B250AF1010A72
:10A66000A6F120035A2B00F22A84DFE813F0AA0394
:10A67000280428049C02280428042804A70228048B
:10A680002804C602D2022804D702DC022804F602FB
:10A690006D026D026D026D026D026D026D026D0242
:10A6A0006D02280428042804280428042804280407
:10A6B000FB0228043C03F303FB02FB02FB02280419
:10A6C000280428042804EE03280428049A002804F7
:10A6D000280428045003280479032804280490033C
:10A6E000280428042804280428042804280428040A
:10A6F000FB0228043C03C500FB02FB02FB02D10362
:10A70000C50070002804B5032804C2039C00DE03C2
:10A7100070002804500372002C02280428047C02D4
:10A72000280472004946039801F0A8FCA0B1D9F8AA
:10A730006430D80704D4B9F80C30990540F1B783D8
:10A740004FF0FF330593059857B0BDE8F08F48F000
:10A7500020089AF8006081E7B9F80C3003F01A027B
:10A760000A2A7FF437AFB9F90E20002AFFF632AF7C
:10A77000D9F86420D20705D49B0503D4D9F8580032
:10A7800002F0E4FF23463A464946039801F026FCCE
:10A790000590059857B0BDE8F08F039802F002FECF
:10A7A000F4E648F0100818F0200F00F06C83089CC5
:10A7B000073424F00703D3E9004503F108020892A7
:10A7C00028F4806300228CE12AAA0799039803F0F9
:10A7D0004DFF002841F076830DF1B40B2CE7D9F83A
:10A7E000580002F0B1FFB9F90C2093B2D8E600BFCF
:10A7F000000000000000000043469F0640F12F8348
:10A80000089C073424F00704D4E9000104F108028D
:10A81000089204460D46002871F1000205DA2D2247
:10A82000644265EB45058DF88B2056AAB9F1FF3FD0
:10A83000049200F0B284012254EA050123F080085A
:10A8400040F05981B9F1000F40F01986002A40F01C
:10A85000088513F0010356AF099302D0302307F89F
:10A86000013D00230A930F9314931193099B9DF8C4
:10A870008B204B45B8BF4B46049312B1049B013368
:10A88000049318F002030B9302D0049B0233049349
:10A8900018F084032C9C0E933FD1069B04995D1AFB
:10A8A000002D3ADD102D2B9A29DD594620462096A1
:10A8B0001023039C079EBB4604E0103D102D01F1C0
:10A8C000080118DD0132BA4F1030072ACDE92B20DC
:10A8D000C1E90073F1DD2AAA314620460C9303F04A
:10A8E000C5FE002840F03D84103D102DDDE92B20F1
:10A8F0002DA90C9BE6DC209E5F4604468B46013268
:10A90000AB4B2C44072ACDE92B24CBE9003500F3CF
:10A91000FF849DF88B200BF1080B72B12B9A01324A
:10A9200001340DF18B000121072ACDE92B24CBE95D
:10A93000000100F318840BF1080B0B9B6BB12B9BF0
:10A940000133023423A90222072BCDE92B34CBE9B2
:10A95000001200F315840BF1080B0E9B802B00F006
:10A960003183099BA9EB0305002D37DD102D2B9AB0
:10A97000904B28DD59462046BB464FF0100937461C
:10A980001C46079E04E0103D102D01F1080115DD65
:10A9900001321030072ACDE92B20C1E90049F2DD50
:10A9A0002AAA3146039803F061FE002840F0D983BB
:10A9B000103D102DDDE92B202DA9E9DC3E46234674
:10A9C0005F4604468B4601322C44072ACDE92B24EE
:10A9D000CBE9003500F3EF830BF1080B18F4807F0F
:10A9E00040F080822B9B099ACBF80070013314440D
:10A9F000072B2C94CBF804202B9300F392830BF1BC
:10AA0000080B18F0040F3BD0069B049A9D1A002DEA
:10AA100036DD102D2B9B21DD1026039FDDF81C80D9
:10AA200004E0103D102D0BF1080B17DD0133604AD7
:10AA30001034072BCDE92B34CBE90026F1DD2AAA0F
:10AA40004146384603F012FE002840F06C85103D68
:10AA5000102DDDE92B340DF1B40BE7DC0133544A42
:10AA60002C44072BCDE92B34CBE9002508DD2AAA9D
:10AA70000799039803F0FAFD002840F0E9822C9C26
:10AA80000499DDE905328A42ACBF9B185B18059337
:10AA9000002C40F0D58200232B930A9B1BB10A990E
:10AAA000039802F021FD0DF1B40B57463B78002BC3
:10AAB0007FF4A7AD2C9BDDF81C90002B41F0E780C4
:10AAC00000232B93CBE243469A0640F14E81089C2B
:10AAD000073424F0070202F10801D2E90045089189
:10AAE000012200218DF88B10B9F1FF3F56A9049186
:10AAF0007FF4A2AE9846012A00F05083022A00F0AB
:10AB00001B8356A900E03946E20842EA4572E8088C
:10AB100004F0070305461446303354EA050201F8F1
:10AB2000013C01F1FF37EED118F0010F00F0148362
:10AB3000302B00F01183049A02393023521A07F89F
:10AB4000013C09920F468CE6A6F1300300221AF868
:10AB5000016B02EB820203EB4202A6F13003092BE8
:10AB6000F5D906927CE5144B179318F0200F00F0EE
:10AB70001481089C073424F00703D3E9004503F14E
:10AB80000802089218F0010F09D054EA050306D014
:10AB900030238DF88D6048F002088DF88C3028F451
:10ABA000806302229DE748F001089AF8006055E5AD
:10ABB0003C1503004C15030008150300039E3046A6
:10ABC00002F0B0FD436818931846FFF759FC1B903C
:10ABD0000446304602F0A6FD83681A93002C3FF429
:10ABE000B8AD9AF80060002B3FF438AD1B78002B0D
:10ABF0003FF434AD48F4806830E5089B9AF8006073
:10AC00001A680692002A03F10403C0F2978608939B
:10AC100024E58DF88B509AF800601FE59AF80060E3
:10AC200048F004081AE59AF800602A2E0AF1010299
:10AC300001F0B081A6F13003092B92464FF00009D4
:10AC40003FF60EAD1AF8016B09EB890903EB4909D0
:10AC5000A6F13003092BF5D902E548F080089AF8EF
:10AC60000060FBE4089C073424F0070494ED007BAB
:10AC700052EC171B22F000431D938DED1C7A083413
:10AC8000DDE91C014FF0FF32BA4B08948DED127BC9
:10AC900004F076FF002840F06F844FF0FF32B54B90
:10ACA000DDE91C0104F04EFF002840F0658400221D
:10ACB0000023DDE9120104F03BFF002840F05B8532
:10ACC0009DF88B20AC4FAD4B0020032104910A90DE
:10ACD00028F08008472ED8BF1F46099181460F9063
:10ACE00014901190C9E50898002301688DF88B3005
:10ACF0001A468DF8F4100123011D04930A9291461F
:10AD00000F9214921192CDE908133DAFB9E5089B5B
:10AD10001F6800258DF88B501C1D002F00F0398610
:10AD2000B9F1FF3F00F011874A462946384603F043
:10AD30003FF80A90002800F0E7850A9BDB1B099387
:10AD4000A94623EAE37308940493CDF82890CDF83C
:10AD50003C90CDF85090CDF844909DF88B208CE538
:10AD600048F010039A063FF5B2AE089ADF0602F1EA
:10AD7000040100F17E835D06089A00F1E4849C05DD
:10AD800040F177831478089100250122A9E67C4BD5
:10AD9000179318F0200F7FF4ECAE089A18F0100FFC
:10ADA00002F1040340F0548318F0400F089A40F079
:10ADB000D08418F4007F00F04B83147808930025AA
:10ADC000E0E69DF88B309AF80060002B7FF446ACEB
:10ADD00020238DF88B3041E49AF800606C2E03BF7D
:10ADE0009AF8016048F020080AF1010A48F01008BA
:10ADF00034E4089A18F0200F52F8043B089200F04F
:10AE0000A183059A1046D117C3E9000157464DE6C4
:10AE10009AF80060682E03BF9AF8016048F4007841
:10AE20000AF1010A48F0400818E40899554B0C68EB
:10AE3000179347F630020431ADF88C2048F0020336
:10AE400008910025022278264BE648F008089AF877
:10AE5000006003E448F010039F063FF5D1AC089969
:10AE6000DD0601F1040200F1FD825C06089900F1A3
:10AE70007584980540F1F68291F900400892E51733
:10AE800020462946C7E4089A18F0100F02F104037F
:10AE900040F0E38218F0400F089A40F0678418F4FD
:10AEA000007F00F0DA8214780893002588E4D9F84E
:10AEB000580002F04BFC4FF0FF33059343E4002EA3
:10AEC0003FF4F8AD002301211A4604918DF8F46097
:10AED0008DF88B300A9399460F931493119309912F
:10AEE0003DAFCEE4652E40F3CA8000220023DDE9A9
:10AEF000120104F013FE002800F069812B9B224A06
:10AF0000CBF80020013301340122072BCDE92B348B
:10AF1000CBF8042000F306840BF1080B249B109A55
:10AF20002C9C934203DB18F0010F3FF46AAD2B9B7E
:10AF3000169ACBF80020159ACBF80420013314445C
:10AF4000072BCDE92B3400F317850BF1080B109B71
:10AF50005D1E002D7FF755AD102D2B9A0B4B40F346
:10AF6000E782194610262346039FDDF81C900C4605
:10AF700014E000BFFFFFEF7FFC140300F814030090
:10AF80001C15030008150300381503004C150300B9
:10AF90000BF1080B103D102D40F3C7820132103326
:10AFA000072ACDE92B23CBE90046F1DD2AAA494641
:10AFB000384603F05BFB00284CD1DDE92B230DF173
:10AFC000B40BE7E7069B049A9D1A002D7FF7C9ACE6
:10AFD000102D2B9ABC4B27DD59462046BB461C46FC
:10AFE0003746079E04E0103D102D01F1080116DDE3
:10AFF000013210301023072ACDE92B200C604B6062
:10B00000F1DD2AAA3146039803F030FB002840F016
:10B01000A880103D102DDDE92B202DA9E8DC3E464F
:10B0200023465F4604468B4601322C44072ACDE96D
:10B030002B24CBE9003500F392820BF1080B90E44E
:10B040002AAA0799039803F011FB00283FF423ADC7
:10B05000DDF81C900A9911B1039802F045FAD9F86D
:10B060006420B9F80C30D00702D4990540F1D081A2
:10B070005A063FF565AB059857B0BDE8F08F109ABA
:10B080002B9B012A04F1010403F101050BF10806D1
:10B0900040F31C810123072DCBF80070CDE92B5420
:10B0A000CBF8043000F3BB81159B169A691C1C4435
:10B0B00007290B91CDE92B14C6E9002300F3BB81CE
:10B0C00008360B9A531C1D460995109D0E930022BD
:10B0D0000023DDE9120105F1FF3906F1080B04F048
:10B0E0001DFD002840F0C280099DC6F8049001377C
:10B0F0004C44072D37602C942B9500F3F9800B9A64
:10B1000006F1100302325E4609929B46199A72605C
:10B110001444099A2C9426AB072A2B9233607FF7AC
:10B1200070AC2AAA0799039803F0A0FA00288FD1DF
:10B130002C9C0DF1B40B64E4179856AF230904F06E
:10B140000F0143EA05732A091C461546435C07F8BC
:10B15000013D54EA0503F1D1049BDB1B0993FFF782
:10B1600080BBB14676E72AAA0799039803F07EFAD6
:10B1700000287FF46DAF2C9C0DF1B40BFFF7DDBB05
:10B180002AAA0799039803F071FA00287FF460AFA8
:10B190002C9C0DF1B40BFFF7E0BB9846002D08BFC7
:10B1A0000A2C80F0708156AF3034012307F8014D2E
:10B1B0000993FFF756BB2AAA0799039803F056FA9A
:10B1C00000287FF445AF2C9C0DF1B40B06E4249BC2
:10B1D000002B40F37382DDE910239342A8BF13468E
:10B1E000002B1D460DDD2B9BCBF8007001332C444A
:10B1F000072B2C94CBF804502B9300F3C1820BF156
:10B20000080B119B002DA8BF5B1B002B1D4640F3B4
:10B210009980102D2B9A2C4B40F3DB831846214646
:10B220005B461026BB46DDF80C90079C074604E001
:10B230000833103D102D40F3C78301321031072A27
:10B24000CDE92B21C3E90076F2DD2AAA2146484642
:10B2500003F00CFA002840F0A584DDE92B212DAB8A
:10B26000E7E7CDF8249056AFFFF7FBBAB9F1000F2E
:10B270007FF74CAFB9F1100F134B40F359861946C5
:10B28000224633461027DDF80CB0079C0E9D0E4673
:10B2900007E00833A9F11009B9F1100F40F3538307
:10B2A00001351032072DCDE92B52C3E90067F0DDDF
:10B2B0002AAA2146584603F0D9F9002840F07284A2
:10B2C000DDE92B522DABE5E74C15030018F0010F1B
:10B2D0007FF4E0AE0122072DCBF80070CDE92B54AE
:10B2E000CBF8042004DC023309930BF1100B0DE7BB
:10B2F0002AAA0799039803F0B9F900287FF4A8AEA9
:10B30000DDE92B34013309930DF1BC0B2DAEFDE6C5
:10B310002AAA0799039803F0A9F900287FF498AEA8
:10B320009DF88B202C9C0DF1B40BFFF7F6BA2AAADE
:10B330000799039803F09AF900287FF489AE2C9CB2
:10B340000DF1B40B119B18F4806F3B44994640F00B
:10B350005783249B109A934249DB18F0010F46D182
:10B36000109ABD18A5EB0905D31A9D42A8BF1D462A
:10B37000002D0DDD2B9ACBF8009001322C44072ACA
:10B380002C94CBF804502B9200F362840BF1080B41
:10B39000002DACBF5D1B1D46002D7FF732AB102D7D
:10B3A0002B9AC54B40F3C480194610262346039FB1
:10B3B000DDF81C900C4605E00BF1080B103D102D3C
:10B3C00040F3B38001321033072ACDE92B23CBE9B8
:10B3D0000046F1DD2AAA4946384603F047F900281D
:10B3E0007FF438AEDDE92B230DF1B40BE6E72B9AA1
:10B3F0001699CBF800101599CBF8041001320C44C3
:10B40000072A2C942B9200F38C820BF1080BA7E7F0
:10B41000D9F8580002F09AF9B9F80C3028E62AAAAF
:10B420000799039803F022F900287FF411AEDDE9B3
:10B430002B542DAE38E62AAA0799039803F016F983
:10B4400000287FF405AEDDE92B342DAE0B9338E6F2
:10B45000146808930025FFF795BB1468089300252E
:10B46000FFF7AEB90C680892E51720462946FFF7AA
:10B47000D2B91468089101220025FFF732BB012AD6
:10B480007FF43CAB8FE608F480630022CDE909A687
:10B49000CDF82C8056AF9246DDF868801E460AE053
:10B4A0000023204629460A2204F0A8FB04460D4644
:10B4B00054EA050329D00A2200232046294604F035
:10B4C0009DFB303207F8012C0AF1010A013F002EE2
:10B4D000E6D098F800309A45E2D1BAF1FF0FDFD0FC
:10B4E000002D08BF0A2CDBD31B9B1899FF1A1A46A4
:10B4F000384603F04DF898F80130002B00F09684A0
:10B5000008F101084FF0000ACAE7049BCDF86880F3
:10B51000DB1BCDF840A00A9EDDF824A0DDF82C80CE
:10B520000993FFF79EB9C14694E521461C460B4698
:10B5300001322C44072ACDE92B24CBE900357FF7D3
:10B540005EAAEEE518F0100F40F0F88018F0400FFA
:10B5500000F05183059A1A805746FFF7A7BA2AAA26
:10B560000799039803F082F800287FF471AD2C9CB2
:10B570000DF1B40BFFF7F5B9DDE9120102460B46F8
:10B5800004F0FEFA002840F09184612E00F0118151
:10B59000412E00F0778348F4807326F02002B9F141
:10B5A000FF3F0E930492139B00F02D84472A00F076
:10B5B0002484002BC0F2F9829DED127BCDE90A00B4
:10B5C0008DED1E7B662E00F0EB83462E00F07E8410
:10B5D000049B0398452B0CBF09F101054D4628AA91
:10B5E00025ABCDE90032022124AB2A469DED1E0B8E
:10B5F00000F0C2FE672E074640F09C8418F0010F51
:10B6000040F0F983289B4046DB1BDDF8388010931F
:10B61000249B1193049B472B00F0E781049B462B4E
:10B6200000F000830499119BF2B2412908BF0F3248
:10B6300003F1FF3306BFD2B201210021002B249376
:10B64000B8BF119B8DF89820BABFC3F101032D221A
:10B650002B22092B8DF8992000F3F983002940F063
:10B66000878430228DF89A200DF19B0230331370BD
:10B67000531C26AA9B1A109A1993012A1344099362
:10B6800040F34284099B159A1344099300230F93B6
:10B6900014931193099B20F4806023EAE37340F430
:10B6A000807804930B9B002B40F0758299469DF89F
:10B6B0008B20FFF7E2B800BF4C1503002B9ABD4961
:10B6C000CBF80010013201340121072ACDE92B24E7
:10B6D000CBF8041060DC0BF1080B2BB9109A1AB9E7
:10B6E00018F0010F3FF48DA92B9A1699CBF8001092
:10B6F0001599CBF8041001320C44072A2C942B9294
:10B7000000F382820BF1080B002BC0F2E782109B42
:10B7100001321C44072ACDE92B24CBE900737FF7C3
:10B720006EA9FEE42AAA0799039802F09FFF002859
:10B730007FF48EAC0DF1B40BFFF7F0BB059A1A60E5
:10B740005746FFF7B3B91488089100250122FFF787
:10B75000C8B9148808930025FFF714BAB1F900405E
:10B760000892E51720462946FFF755B81488089334
:10B770000025FFF725B82D228DF88B20FFF7A2BA00
:10B780002AAA0799039802F071FF00287FF460ACA1
:10B790002C9C0DF1B40B34E52AAA0799039802F00A
:10B7A00065FF00287FF454AC249B2C9C0DF1B40B56
:10B7B00093E730238DF88C307823B9F1630F8DF83F
:10B7C0008D3048F0020400F3B08248F481730E9388
:10B7D00026F0200304930022139B0A92A0463DAF5B
:10B7E000002BC0F2E3819DED127B8DED1E7B0023CB
:10B7F0000B93612E00F05582412E7FF4E3AE24A816
:10B800009DED1E0B02F03AFE00224FF07F5351ECEB
:10B81000100B03F01BFF00220023CDE90C0104F004
:10B820007DF9002840F00583634B0993CDE90FA60D
:10B8300009F1FF34CDF850902197B946CDF844B0C6
:10B84000CDF88080DDF824A0DDE90C6703E004F08A
:10B8500065F920BBA9460022584B3046394603F013
:10B86000F5FE0F46064604F0A1F9804603F084FE7B
:10B8700002460B463046394603F030FD4D461AF875
:10B8800008C005F801CBB4F1FF3FA34606460F46BA
:10B890004FF000024FF0000304F1FF34D7D13046DF
:10B8A00039460022464BDDF83CA0109ECDF83CB056
:10B8B0004446CDF84090DDF88080DDF85090DDF80A
:10B8C00044B0219FCDE90C0104F050F9002840F06C
:10B8D0007681DDE90C010022394B04F01FF910B12B
:10B8E000E20700F16C810F9B002B07DB0F9B0133FC
:10B8F0002B44302205F8012BAB42FBD1EB1B404619
:10B900001093DDF8388083E6CDF81090CDF82490C0
:10B91000089481460F90149011909DF88B20FEF7AB
:10B92000ACBF2AAA0799039802F0A0FE00287FF472
:10B930008FAB249B2C9C0DF1B40B11E55242069267
:10B940000893FFF76DB9144632461E4613462A4641
:10B950000132099206F10802C6E90039099B2B93CE
:10B960004C44072B2C943FF7C3AC0133099302F1ED
:10B97000080B1646FFF7CABB2AAA0799039802F0DC
:10B9800075FE00287FF464AB2C9C0DF1B40BFFF71F
:10B99000DEBA4B46062B28BF0623B9460F971497ED
:10B9A00011970A973A460493CDE90843054FFEF7ED
:10B9B00064BF00BF381503001C15030000003040B1
:10B9C0000000E03F301503000C4639465F469B46B9
:10B9D0000B4601322C44072ACDE92B24CBE9003554
:10B9E0003FF7A5AC0BF1080BACE4119BDA1C02DBB2
:10B9F000994580F2B580023E26F02003049311E6BB
:10BA0000109BCDF838805A46DDE91A8BFB18CDF82B
:10BA10002CA00C97AF4EDDF81CA009934F46DDF823
:10BA20000C902146149B002B5BD00F9B002B54D114
:10BA3000149B013B08F1FF3814932B9B189810605E
:10BA400001335944072B2C91C2F804B02B9368DCC6
:10BA50000832099898F80030C51B9D42A8BF1D46C2
:10BA6000002D0BDD2B9B176001332944072B2C91F4
:10BA700055602B935EDC98F800300832002DACBF87
:10BA80005D1B1D46002D26DD102D2B983CDD10245E
:10BA900003E00832103D102D36DD0130103107284B
:10BAA000CDE92B01C2E90064F3DD2AAA51464846DC
:10BAB00002F0DCFD002850D1DDE92B012DAAE9E7D9
:10BAC0002AAA5146484602F0D1FD002845D198F8EF
:10BAD00000302C992DAA1F44A4E70F9B013B0F9324
