:020000022000DC
:10600000000001203DBE020065BE02003186020094
:1060100069BE02006BBE02006DBE020000000000FF
:106020000000000000000000000000006FBE020041
:1060300071BE02000000000073BE020075BE0200C7
:106040004DA2020077BE020005A7020089AA020045
:10605000A9A9020077BE020079A50200FDA70200EF
:1060600059AA020069AA020077BE020077BE0200A8
:1060700077BE020077BE020077BE020077BE020044
:1060800077BE02001968020077BE020077BE0200E8
:10609000B568020077BE0200F1B8020077BE0200C8
:1060A00077BE020077BE020077BE020077BE020014
:1060B000B5A7020077BE020000000000000000004B
:1060C00077BE0200C5A70200D5A7020077BE020076
:1060D00077BE0200E5AE020077BE020000000000BD
:1060E00000000000000000000000000000000000B0
:1060F00000000000000000000000000000000000A0
:10610000000000000000000000000000000000008F
:10611000000000000000000000000000000000007F
:10612000000000000000000000000000000000006F
:10613000000000000000000000000000000000005F
:10614000000000000000000000000000000000004F
:10615000000000000000000000000000000000003F
:10616000000000000000000000000000000000002F
:10617000000000000000000000000000000000001F
:10618000000000000000000000000000000000000F
:1061900000000000000000000000000000000000FF
:1061A00000000000000000000000000000000000EF
:1061B00000000000000000000000000000000000DF
:1061C00000000000000000000000000000000000CF
:1061D00000000000000000000000000000000000BF
:1061E00000000000000000000000000000000000AF
:1061F000000000000000000000000000000000009F
:1062000010B5054C237833B9044B13B10448AFF3F0
:1062100000800123237010BD80A200200000000038
:10622000C453030008B5034B1BB103490348AFF344
:10623000008008BD0000000084A20020C4530300B9
:10624000154B002B08BF134B9D46A3F5803A002148
:106250008B460F461348144A121A05F00DFF0F4BD8
:10626000002B00D098470E4B002B00D09847002001
:10627000002104000D000D48002802D00C4807F052
:10628000A9FF05F009FE2000290000F013F805F031
:10629000F3FD00BF00000800000001200000000026
:1062A0000000000080A200206CBA0020D5E10200AE
:1062B000A5F3020070B54FF4004188B0002003F050
:1062C000CFFA044618B1394A1C2100F052FA03F003
:1062D000F5F9374805F01AFF05F0B4FA04F058F85C
:1062E00010B904F01FF8044624B1304A2A21204690
:1062F00000F03FFA4FF0A0430322C3F86827C3F829
:106300003827C3F82C27C3F834270022C3F83027D6
:106310004FF08062C3F808254FF48042C3F8082587
:10632000244B04AA03F10806154618685968144658
:1063300003C40833B3422246F7D118681E4A1B79BA
:106340002060237101A900232846CDE9012303938E
:1063500004F00EFD18B1154A3C2100F00AFA294656
:10636000164A1748174E184D04F05AFD174805F005
:10637000CDFE00242146304605F0C8FE042102A8C7
:1063800004F07EFD013402A9284605F0BFFE052C6D
:10639000F0D14FF0A0430322C3F8642700204FF050
:1063A0000072C3F80C2508B070BD00BF6839030047
:1063B0006F390300F3390300772C72008C39030026
:1063C00091390300D0390300E5390300B7390300E0
:1063D00038B5054D044645F001054FF47A40A8470D
:1063E000013CFAD138BD00BFC03A03007FB5054675
:1063F0000E46144672B603F069FC03F08BFA0028CF
:10640000FBD13E4805F082FE41F201039D4264D07B
:1064100006D8012D12D03146394805F077FE10E03C
:1064200044F201039D425AD044F202039D42F2D14C
:1064300022886168334805F069FE02E0324805F0C1
:1064400065FE03F0A5FF08B903F06CFF0023ADF86B
:106450000C308DF80E3003A9012319208DF80D3072
:1064600003F0A0FF03A9182003F09CFF03A9172045
:1064700003F098FF192004F051F8182004F04EF8AA
:10648000172004F04BF84FF4FA70FFF7A1FF192022
:1064900004F016F8182004F013F8172004F010F890
:1064A0003220FFF795FF192004F038F8182004F087
:1064B00035F8172004F032F84FF4FA70FFF788FF30
:1064C000192003F0FDFF182003F0FAFF172003F056
:1064D000F7FFFA20FFF77CFFCCE70C48AFE7A56891
:1064E000284603F05DFE2368019600930246636828
:1064F0000748294605F00AFEA3E700BF003A03005B
:106500009D3A0300583A0300193A0300363A030053
:10651000733A030007B503F03BFF08B903F002FF2D
:106520000023ADF804308DF8063001A901231920AD
:106530008DF8053003F036FF01A9182003F032FF73
:1065400001A9172003F02EFF192003F0E7FF182000
:1065500003F0E4FF172003F0E1FF4FF4FA70FFF7B8
:1065600037FF192003F0ACFF182003F0A9FF172014
:1065700003F0A6FF3220FFF72BFF192003F0CEFF18
:10658000182003F0CBFF172003F0C8FF4FF4FA7078
:10659000FFF71EFF192003F093FF182003F090FF70
:1065A000172003F08DFFFA20FFF712FFCCE70369F5
:1065B000C1688B429DBF8268D21802F1FF3203F19D
:1065C000FF3394BF501A581A70472DE9F041D0E9B3
:1065D00002670446F61B40689642884615463844D2
:1065E00005D905F0AFFC3D44E560BDE8F0813246D9
:1065F000AD1B05F0A7FC2A4608EB0601606805F014
:10660000A1FCF1E72DE9F843C5680646894617461F
:106610004FF000083469B3687068A54228BFE418D9
:10662000013C621B5C1BBC4228BF3C46944228BF15
:10663000144649462844224605F084FCB3682544A4
:10664000AB4208BF00253F1BA044A144F560E1D147
:106650004046BDE8F883000010B5114C114AA26114
:106660000223C4E90433104BE361A2644FF40073C6
:106670000E4A2362E264002310220D49A362E01D4A
:106680006362E362A3656365E365226505F01AFE54
:106690000849204605F016FE2023A37110BD00BF57
:1066A000BCB90020C63A0300CCA40020BCA4002042
:1066B000CF3A0300D33A0300F8B5184C182300FB77
:1066C000033503FB00402544C46A012C0F461646DF
:1066D00011D003D3022C1BD000240AE02846FFF778
:1066E00066FF864205D8324639462846FFF76DFFD9
:1066F00034462046F8BD2846FFF759FF8642344607
:1067000028BF0446224639462846FFF75EFFF0E7D9
:106710002846BDE8F840FFF775BF00BFBCB90020B0
:1067200073B50D4B1B7804460D4616460BB9FFF7A3
:1067300093FF02A8002300F8013D00F0C5FA32469D
:1067400029462046FFF7B8FF04469DF8070000F0F1
:10675000EBFA204602B070BDBCB90020FFF77CBF49
:1067600010B511461C461A460020FFF7D9FF2046F7
:1067700010BD00B583B002900091019244F2010077
:1067800071466A46FFF732FE03B000BD094A5378EE
:1067900091780133DBB2994208BF00231178994206
:1067A0001FBF03705078182303FB002014BF043070
:1067B00000207047CCA6002073B5054602A800242F
:1067C00000F8014D0E4600F07FFA0DF10600FFF7CC
:1067D000DDFF90B106700A4B9DF8062045605A70A7
:1067E0009DF8070000F0A0FA24B9064B4FF4801280
:1067F000C3F80021204602B070BD0424F0E700BFBA
:10680000CCA6002000E100E0024B4FF43C6043F0D6
:1068100001031847E03A0300F8B51F491F4B002554
:10682000C1F84051C1F84451C1F84851C1F84C5128
:10683000C1F80051C1F804511B684BB3D1F80445AD
:1068400017490968641A24F07F442F461A68A24247
:1068500009D8A41A15441A7CDE691AB11F74D3E949
:1068600005209047AEB90F4B0F4A197813788B4229
:1068700005D10133DBB2022B08BF0023137012785D
:106880000A4B43F822500A4B4FF48012C3F8002100
:10689000F8BD3346DAE700BF00100140ECA7002046
:1068A000E8A70020E4A70020E5A70020DCA700203F
:1068B00000E100E02DE9F74F9C4A9D4913780978E3
:1068C0009C4D99423CD00133DBB2022B08BF002320
:1068D000137099491278994B0F6853F822003B18AE
:1068E00023F07F4300220B602B6816461446944623
:1068F00013B942B12B6006E0196881420ED902B18A
:106900002B60091A19604FF001082B68DFF834A2D8
:1069100000930027BEB9DFF834B260E0401A0C449F
:10692000D968C3F800C0D3F81CE031B13A1922F09D
:106930007F42C3E90121DE611E4601227346D7E78B
:106940000026B046E1E73446F6697B4A6368126880
:10695000DFF8FCC1A068991A21F07F41614500F27F
:10696000A58001442160012222742A680023C4E921
:106970000133E361002A40F0A2802C60CAE75A1C70
:106980009BF80210D2B291428BF8002004BF002283
:106990008BF80020182202FB03B32A6819799C683F
:1069A000022974D003297ED0012918D1217CB1B9E4
:1069B000DA6862601A69A2605A69E2609B69A36141
:1069C0005F4B1B78002BC0D06160BEE79C4200F09B
:1069D00090809946DB69002BF8D1002323749BF843
:1069E00000309BF801209A42C9D12B682FB9009A38
:1069F000934202D1B8F1000F43D0002B41D0D3F81D
:106A000000A0504D4C4BD5F804751C68DFF844814C
:106A10003E1B98F8003026F07F4603369BB94FF4B2
:106A20008033C5F84433C5F80433474B4FF4003284
:106A30004FF00109C3F880211A60C5F80090FFF7F4
:106A4000E3FE88F80090B2452CBF5444A41924F00A
:106A50007F44C5F84045D5F80435DB1B23F07F4360
:106A6000E41B033324F07F44A3420AD9D5F804354C
:106A7000C5F84035FFF7C8FE334B4FF40032C3F87A
:106A800000212F4B00221A7003B0BDE8F08F13468F
:106A90009146A0E71174D2690123002AFAD1002B94
:106AA0009DD02A609BE700231946F6E7D31A23F00E
:106AB0007F43834234BFC31A0023236053E7216816
:106AC0001368994213D8591A1160E26155E7091AFF
:106AD000D8691A4638B1034618688842F7D3401A75
:106AE0001860184613462160E061DC6112E7134626
:106AF000F2E74C450DD1D3692B6053B90E48019292
:106B00000121CAF8081003600D4B1970FFF77CFED5
:106B1000019AE1692368C9F81C1011B1086803449F
:106B20000B602B689A4218BF012756E7E4A70020A4
:106B3000E5A70020ECA70020E8A70020DCA70020A4
:106B4000D8A700200010014000E100E0CCA6002002
:106B5000FEFF7F00D9A70020F8B5194E194D1A4F36
:106B60004FF40033C6F8803001244FF48033C5F869
:106B70004833C5F808336C60FFF746FEAC6000246C
:106B80003C60FFF741FE114B1C70114B0B221C8027
:106B90009A70104B1C60104B1C70104B4FF48012FD
:106BA0001C70E023C6F8802186F814333260C5F8E3
:106BB000084586F81133D5F804353B602046F8BD0A
:106BC00000E100E000100140E8A70020D9A7002064
:106BD000CCA60020ECA70020E4A70020E5A7002019
:106BE000074B9B784BB132B128B10368187C20B9B0
:106BF00059745A617047072070470820704700BFDA
:106C0000CCA600202DE9F7431D4FBB7805460E4664
:106C100090469BB390B304292ED9436973B3437C48
:106C200002A80024012B00F8014D0CBF8946A146A3
:106C300000F04AF80DF10600FFF7A8FDD0B10123DE
:106C40000370104B4560D3F80435C0E90498C0E9DF
:106C500002369DF806307B709DF8070000F064F85E
:106C600024B9094B4FF48012C3F80021204603B029
:106C7000BDE8F0830424EFE70724F7E70824F5E7ED
:106C8000CCA600200010014000E100E0064A927806
:106C90003AB130B1426922B1002202740221FFF7F9
:106CA0008BBD0820704700BFCCA60020EFF3058302
:106CB000C3F308032BB9EFF31480C04300F00100C5
:106CC000704701207047000070B50446FFF7EEFFE3
:106CD000012803D01049432004F038FFEFF3108659
:106CE00072B60E4A9068012398B993600C4B0D4D13
:106CF000D3F8801029401160C3F88050D3F8841075
:106D000051604FF0FF32C3F88420207006B962B69C
:106D100070BD2370FAE700BFE63A030034BA0020E2
:106D200000E100E0FC06FFBD10B50446FFF7BEFF22
:106D3000012803D00949512004F008FF084B9A6844
:106D40005AB154B9EFF3108172B6064A1868106050
:106D5000586850609C6001B962B610BDE63A030005
:106D600034BA002000E100E0024B1B680021986863
:106D700005F0E0B9C098002042884378007843EAE3
:106D8000022340EA032070470B0A017043700B0C8A
:106D9000090E8370C1707047024400F8011B9042D5
:106DA000FBD1704710B5024410F8013B11F8014BBC
:106DB0009042A3EB040301D0002BF5D0184610BD80
:106DC00083690239023B8B4283BF4389C06A01FB5E
:106DD000030000207047000010B503685BB11A463D
:106DE00012F8011B202911D93A29F9D11978A1F1FA
:106DF0003004092C02D94FF0FF3006E002339A42EA
:106E0000F9D13029F7D10260002010BD014B18786C
:106E1000FBE700BFF0A7002038B50D46044618B9BF
:106E2000092000232B6038BD0368002BF8D01A78A6
:106E3000002AF5D08188DA889142F1D1587801F0A2
:106E400013FE10F00100EBD12368EBE701380A4490
:106E500011F8013B00F8013F9142F9D17047CA7E19
:106E60008B7E032843EA022301BF487D0A7D42EA64
:106E7000002243EA024318467047C2F307238A768A
:106E8000CB760378032B01BF120C0A75120A4A75E0
:106E9000704770B500F13406026B05460123314698
:106EA000407801F03DFE044688B9296B6B6AEA69B7
:106EB000E870CB1A934208D2AB78022B05D10A4472
:106EC00001233146687801F02BFE204670BD012475
:106ED000FBE738B5036B8B4204460D4615D0C378EB
:106EE00073B92A46012304F13401607801F0C6FD2C
:106EF000002816BF4FF0FF3500200120256338BD64
:106F0000FFF7C7FF0028FAD1EBE70020F7E7000002
:106F1000002310B5C3704FF0FF3303630446FFF73F
:106F2000D8FF18BB94F8332294F8323243EA022394
:106F30004AF6552293421BD194F83430EB2B03D000
:106F40001833DBB2012B15D803220B4904F16A0078
:106F5000FFF728FF48B10522084904F18600FFF732
:106F600021FF002814BF0220002010BD0420FCE7F0
:106F70000320FAE70220F8E7BB3B0300BF3B030016
:106F80002DE9F043002385B00B600F461546FFF74F
:106F900023FF061EC0F2C180974B53F82640002CF9
:106FA00000F0BD803C60237805F0FE0573B1607889
:106FB00001F05AFDC10709D4002D00F0B28010F095
:106FC000040000D00A2005B0BDE8F0830023F0B231
:106FD0002370607001F08AFCC20700F1A4800DB13B
:106FE0004307EFD400212046FFF792FF02287AD111
:106FF00004F5FD75002115F8040C10B12846FFF7C3
:10700000BBFE4DF821000131042905F11005F2D134
:1070100000255DF82560002E5DD031462046FFF743
:1070200077FF012858D894F8402094F83F3043EA7D
:107030000223B3F5007F5AD194F84B3094F84A50AC
:1070400055EA032504D104F15800FFF795FE0546E3
:1070500094F84490E56109F1FF33012B84F8029024
:1070600045D894F84170BBB26381002B3FD07B1EA2
:107070003B423CD194F8463094F8458048EA0328D6
:1070800018F00F0FA4F8088031D194F8481094F844
:10709000470050EA012003D104F15400FFF76CFED1
:1070A00094F8432094F8423053EA02231FD005FBA2
:1070B00009F903EB18124A44904218D3811AB1FB24
:1070C000F7F1A1B14D48814211D84FF6F5708142D8
:1070D0002BD903272FE003200135042D99D1042853
:1070E00005D101206FE70428FBD0012801D90D202C
:1070F00069E7002697E7B8F1000FF8D0022F4FEAB2
:10710000410018BF40184B4418BF01F00101A362B1
:107110000CBF014601EB500126E00B2053E70C2089
:1071200051E728464FE703204DE740F6F577B9428F
:1071300094BF01270227023133443244032FA16157
:1071400026626362E262D6D194F85F2094F85E30E2
:1071500053EA0223CBD1B8F1000FC8D104F160008B
:10716000FFF70AFEA062890001F2FF11B5EB512F73
:10717000BDD34FF0FF33C4E90333032F4FF0800337
:1071800023712FD194F8652094F8643043EA0223E8
:10719000012B27D1711C2046FFF79BFE10BB94F8F2
:1071A000332294F83232207143EA02234AF6552200
:1071B000934217D104F13400FFF7DEFD104B9842E3
:1071C00010D104F50670FFF7D7FD0E4B984209D198
:1071D00004F50770FFF7D0FD206104F50870FFF794
:1071E000CBFDE060084A2770138801339BB2002072
:1071F0001380E3806061E6E6F4A70020F5FFFF0F4F
:107200005252614172724161F8A7002001292DE9B3
:10721000F04705460C46174672D983698B426FD9F1
:107220000378022B3FD0032B50D0012B68D101EB08
:107230005108416A01EB5821FFF74BFE064638BB67
:1072400005F1340908F1010AC8F3080814F0010433
:107250001FBF19F8083003F00F023B0103F0F003E1
:1072600014BF1343FBB209F80830696A0123EB70BD
:1072700001EB5A212846FFF72CFE064640B9CAF317
:10728000080A44B1C7F3071709F80A700123EB7025
:107290003046BDE8F08719F80A30C7F3032723F01A
:1072A0000F031F43F0E7416A01EB1421FFF711FEC2
:1072B00006460028ECD1640005F1340304F4FF74A1
:1072C0001A191F55C7F307275770DFE7416A01EB0B
:1072D000D411FFF7FEFD06460028D9D1A40005F120
:1072E000340304F4FE741C442046FFF745FD27F0E8
:1072F000704700F0704139432046FFF745FDC5E770
:107300000226C5E70129F8B505460C4652D983691E
:1073100099424FD20378022B29D0032B38D0012B6E
:1073200048D101EB5106416A01EB5621FFF7D1FD2F
:1073300010B14FF0FF30F8BD771C696AC6F308063C
:107340002E4401EB5721284696F83460FFF7C1FD23
:107350000028EED1C7F308073D44E30795F8340051
:1073600046EA00204CBF0009C0F30B00E3E7416A86
:1073700001EB1421FFF7ADFD0028DAD164003435AC
:1073800004F4FF742B19285D5B7840EA0320D2E7F0
:10739000416A01EBD411FFF79CFD0028C9D1A4007C
:1073A00005F1340004F4FE742044FFF7E5FC20F0FE
:1073B0007040C0E70120BEE7F8B5054604682961C2
:1073C00082680E46D2B92378022B01D9A36AB3B9D9
:1073D0002389B3EB561F01D80220F8BDA36AAB6125
:1073E000AB696A61002BF7D003EB56233434C6F344
:1073F00008063444AB61EC610020EEE71346678970
:107400001A467F02BE42114604D22046FFF7D8FC3E
:10741000A861E5E72868FFF775FF431C024606D020
:107420000128D9D9A3698342D6D9F61BEAE70120FE
:10743000D3E72DE9F041804605680F4649B9EE686B
:10744000CEB1AB69B34298BF01262B69ABB900241A
:1074500009E02846FFF756FF0128044658D9421C88
:1074600004D14FF0FF342046BDE8F081AB69834280
:10747000F9D83E46E9E70126E7E7BE4215D1AB69F8
:10748000D8F80000741C9C4228BF02242146FFF754
:1074900039FF01283CD0431CE3D0D8B1EB68012B65
:1074A00003D9AA69934238BF1E463446AB690134FA
:1074B000A34202D8012ECAD902242146D8F80000DE
:1074C000FFF720FF40B1012822D00130C9D0B442DB
:1074D000ECD1BCE7002CE8D04FF0FF322146284623
:1074E000FFF794FE90B957B9AA692B69EC60023A8C
:1074F00093420FD92B7943F001032B71B3E7224656
:1075000039462846FFF782FE0028EDD00128A8D092
:107510000124A8E7013B2B61ECE7F8B50D46012DEE
:10752000074611462CD90468A369AB4228D92AB171
:107530004FF0FF322046FFF769FE30B92946386820
:10754000FFF7E0FE064608B90020F8BD012817D075
:10755000431C17D0002229462046FFF757FE00287B
:10756000F3D1A2692369911E8B4205D201332361B5
:10757000237943F001032371B2423546DED8E3E7B5
:107580000220E2E70120E0E770B5C3780446002B53
:1075900044D12378032B38D12679012E35D104F13B
:1075A00034054FF4007200212846FFF7F5FB552300
:1075B00084F83232AA2384F83332522341227221D2
:1075C00084F8343084F83530612384F8363084F818
:1075D000372084F81A2284F81B3284F8181284F8B1
:1075E000191204F507702169FFF7CEFBE16804F575
:1075F0000870FFF7C9FB226A6078013233462263C4
:10760000294601F08DFA002323710022114660788B
:1076100001F0FCFA003018BF012003E0FFF739FC4D
:107620000028B6D070BDF8B5C37804460D46B3B98E
:1076300029462046FFF7C4FB04F1340620630746C1
:107640004FF4007200213046FFF7A6FB0025638946
:107650009D420AD36089401B18BF0120F8BDFFF787
:1076600018FC0028E4D00120F8E701237A193146FC
:10767000607801F055FA0028ECD10135E7E72DE9F3
:10768000F843076905682037B7F5001F24BF0023BA
:10769000836183690446894673B1C7F30808B8F16A
:1076A000000F39D141690133836139B92B89B3EBBB
:1076B000571F31D80023A36104200BE06B89013BE5
:1076C00013EA572328D12846FFF71CFE0128064657
:1076D00002D80220BDE8F883421C01D10120F9E75D
:1076E000AB69834212D8B9F1000FE3D0616920463B
:1076F000FFF79FFE0646A8B10128EAD0431CEDD053
:1077000001462846FFF78FFF0028E7D16661314622
:107710002846FFF755FBA061343545442761E561F4
:107720000020D7E70720D5E72DE9F0470B78076859
:107730002F2B04460D4601D05C2B0AD12A46137824
:107740002F2B154602F10102F9D05C2BF7D0002354
:1077500000E07B69A3602B781F2B30D9DFF88C9178
:1077600004F120080B2220214046FFF715FB2B785F
:107770002E2B2DD000226E1E1146082016F8013F38
:10778000202B01F101010BD92F2B01D05C2B5CD1F7
:107790006818411B10F8016B2F2EFAD05C2EF8D020
:1077A000002A67D094F82020E52A04BF052284F837
:1077B0002020202B8CBF002304230D4417E08023BE
:1077C00084F82B3020460021BDE8F047FFF7F4BDD8
:1077D00084F820306B782E2B2ED184F82130AB78B2
:1077E0002E2B47D003222F2B28D11544202384F899
:1077F0002B3000212046D4F800A0FFF7DDFD06461F
:1078000000283AD1A1695046FFF763FB0646A0BBAA
:10781000E069037883B3C37A03F03F03A371C37AAB
:107820001B0704D40B224146FFF7BCFA28B3002102
:107830002046FFF724FFE2E70222D4E75C2BD4D0F6
:10784000202B17D815442423D1E72E2B3ED090426D
:1078500010D913F0800F18BF03F07F03DFF890E01A
:1078600018BF19F803301EF801CFBCF1000F32D059
:107870006345F8D1062610E0042694F82B309EB11B
:10788000042E0AD1990603F0040209D5002A3FF418
:1078900069AF802384F82B3000263046BDE8F0879E
:1078A000002A08BF0526F8E75A07F6D4A379DB06B5
:1078B0000AD523693878C3F3080307F13401194462
:1078C000FFF7CDFAA0604DE70526E6E70B28D1D0FB
:1078D00008220B2052E7A3F1610CBCF1190F01D86B
:1078E000203BDBB208F80230013247E73B3B0300A4
:1078F000153C030038B5002104460568FFF75CFD20
:1079000070B9A1692846FFF7E4FA48B9E3691B7822
:10791000E52B08D03BB101212046FFF7B0FEEFE791
:10792000042808BF072038BD70B505460668FFF774
:10793000E1FF044690B9A9693046FFF7CAFA044648
:1079400060B901462022E869FFF726FA0B2205F10B
:107950002001E869FFF77AFA0123F370204670BD31
:107960001FB5CDE9001004A8144640F8041DFFF728
:1079700033FA002814DB0C4B53F820200AB1002105
:107980001170019A0AB100211170019A43F8202068
:1079900044B1002201A96846FFF7F2FA04B010BD15
:1079A0000B20FBE72046F9E7F4A700202DE9F04F74
:1079B0008FB0164601910446002800F0DE8002F0E8
:1079C0003F052A4602A901A8FFF7DAFA0746002870
:1079D00058D10DF13809029B49F82C3D01994846D0
:1079E000FFF7A2FE20B99DF93730002BB8BF062063
:1079F00016F01C0F56D000284BD0042842D1484620
:107A0000FFF792FF00283DD145F00805290753D51F
:107A1000DDF828A0DDF808B051469BF80000FFF71C
:107A20001EFA212300268AF810304C238AF80E60B3
:107A30008AF80F608AF811300A9B2022DA72804699
:107A400032460A995846FFF718FA0A9B1E775E7766
:107A50009E77DE77029B0122DA70B8F1000F2BD0FF
:107A6000029B324641464846D3F830A0FFF755FD09
:107A700040B951460298FFF72CFA029A08F1FF33F9
:107A8000D360C8B100232360074638460FB0BDE875
:107A9000F08F9DF8123013F0110F6AD17007B5D531
:107AA0000820EFE70028EDD19DF81230DA065ED409
:107AB000B60701D5D8075CD4029EDDF82880336B69
:107AC0002362C4F8248030782907414648BF45F036
:107AD0004005FFF7C4F9A06008F11C00FFF74CF95E
:107AE0002660E060F388A380002104F128064FF4AB
:107AF000007225746174E16161613046FFF74CF9F1
:107B0000AA06C2D5E568002DBFD0029B6561B3F817
:107B10000A80A1684FEA4828A8451AD30020A1612D
:107B20000028AFD1C5F30803002BAED0DDF80880E4
:107B30004046FFF745F9F0B100EB5522E261012321
:107B4000314698F8010000F099FF00289DD00120EF
:107B500098E72068FFF7D6FB01280146A5EB08054A
:107B600003D9431CD8D10120D9E70220D7E704204C
:107B700088E7072086E7022084E7092785E72DE9C3
:107B8000F04F9B4685B000238946CBF8003003A90F
:107B900004461546FFF740F90646F8B9667CEEB98B
:107BA000237CD90740F18F80E3686769DF1BAF4210
:107BB00028BF2F4604F1280A87B16269C2F308037F
:107BC000002B72D1039B5B89013B13EA522315D131
:107BD00042B9A06801280CD802266674304605B068
:107BE000BDE8F08FA16920680093FFF78BFB009B35
:107BF000F0E7421C01D10126EFE7A0610193039B4E
:107C0000A16900931846FFF7DBF80028E4D0019B38
:107C10007D0A03EB00082AD0009A00985289407828
:107C20005919914288BFD51A2B464246494600F061
:107C300025FF0028DFD194F91030002B0BDAE06922
:107C4000A0EB0800A84206D24FF40072514609EB9F
:107C50004020FFF7FBF86D02DBF800302B44CBF837
:107C6000003063697F1BA9441D446561A4E7E26994
:107C7000424518D094F91030002B0BDA00980123FC
:107C80005146407800F04CFF0028B4D1237C03F02B
:107C90007F0323740398012342465146407800F045
:107CA000EDFE0028A7D1C4F81C806169C1F308016A
:107CB000C1F50075BD4228BF3D462A46514448469D
:107CC000FFF7C4F8C8E7072688E72DE9F04F9B4681
:107CD00085B000238946CBF8003003A90446174637
:107CE000FFF79AF80646002840F08980667C002E4F
:107CF00040F08580237C9A0740F1AA806369FB42AB
:107D000000D3DF4304F1280A5EE0A1696EE0012898
:107D100002D10226667472E0431C01D10126F9E704
:107D2000A368A06103B9A06094F91030002B0CDAAD
:107D30000398E26940780123514600F0F1FE0028E3
:107D4000ECD1237C03F07F032374039BA169009390
:107D50001846FFF735F80028DBD0019B7D0A03EBBE
:107D6000000850D0009B019A5B8900982A449A42EF
:107D700088BF019A407888BF9D1A2B4642464946E3
:107D800000F0CEFE0028C9D1E169A1EB0801A942AB
:107D90000AD24FF4007209EB41215046FFF756F822
:107DA000237C03F07F0323746D02DBF800302B4447
:107DB000CBF8003063697F1BA9441D44E36865610B
:107DC000AB422CBFE360E560AFB16369C3F3080267
:107DD00062BB039A5289013A12EA53220192A3D15B
:107DE000002B92D1A068002891D101462046FFF7D0
:107DF00020FB00288BD1237C43F0400323743046C2
:107E000005B0BDE8F08FE36943450DD0E2686369D2
:107E10009A4209D90098012342465146407800F021
:107E20002DFE00287FF47AAFC4F81C806069C0F38F
:107E30000800C0F50075BD4228BF3D462A464946A8
:107E40005044FFF703F8237C63F07F032374ACE70F
:107E50000726D4E773B54368002B044614DB5D1C8A
:107E600003443B2D866819730BDD01AB2A4600F1F4
:107E70000C010068FFF729FF019B5D1B18BF4FF045
:107E8000FF3501366560A66002B070BD13B542686B
:107E9000002A044603DA4FF0FF3002B010BD00F1B3
:107EA0000C0101AB0068FFF710FF0028F3D16268F6
:107EB000019B9A42EFD1A068EFE773B501A9044690
:107EC000FEF7AAFF0546002839D1237C5A0636D58D
:107ED0001B060CD50198E2694078012304F12801C2
:107EE00000F01EFE70BB237C03F07F032374216A25
:107EF0000198FEF7EEFF054608BB666AF37A43F089
:107F00002003F372A26820683146FEF7B6FFE168ED
:107F100006F11C00FEF738FF212333764C237376DD
:107F2000019BB5750122F575B574F574DA70019889
:107F3000FFF72AFB237C23F04003054623742846E1
:107F400002B070BD0125FAE713B50446FFF7B5FF8F
:107F500028B901A92046FEF75FFF00B9206002B0F2
:107F600010BDF7B50D4601A90446FEF755FF0646BC
:107F7000002859D1667C002E56D1E368AB4204D26A
:107F8000227C12F0020F08BF1D4600226369626165
:107F90000DB92F461DE0019A57897F02002B39D079
:107FA000013B6A1EB3FBF7F1B2FBF7F28A4231D311
:107FB0007A421340A1696361ED1A002959D1002763
:107FC000E36865699D4281BF237CE56043F040031F
:107FD0002374C5F308053DB3E269974224D094F9B0
:107FE0001030002B04F128050ADA019801232946F4
:107FF000407800F095FDE0B9237C03F07F03237403
:10800000019801233A462946407800F037FD80B9AF
:10801000E76109E0A16879B92046FFF70AFA01286B
:10802000014604D102266674304603B0F0BD01302B
:1080300001D10126F7E7A160A161BEE73B4463617E
:10804000237C9A07A5EB070506D52046FFF7F1F933
:10805000014628B905460FE02068FFF753F90146AD
:108060004B1CE6D00129DDD9019B9B698B42D9D9F4
:10807000A161BD426369E1D863692B446361C5F3C3
:108080000803002B9BD00198FEF79AFE0028C9D068
:1080900000EB552794E700002DE9F04F89B008AEBA
:1080A0000D4646F80C0D304617461C46FEF794FE6A
:1080B0000028C0F23D82A34B53F820300BB10022C0
:1080C0001A70C6B2304600F011FCC20700F13282CD
:1080D000430700F1318206AA0321304600F096FDE5
:1080E00030B9069A531EB3F5004F01D21A4201D09F
:1080F0000123069347B1944BA7F500729A4203D926
:10810000132009B0BDE8F08F7B1E3B42F8D1129BD3
:108110005B0A0493002C00F01182002B00F00E8209
:1081200007AA0121304600F071FD002840F0EA80E6
:1081300015F008030293079B0CBF4FF03F094FF067
:1081400000094B4501D20E20DBE7A3EB09037F2B8F
:108150000793F8D97A0A802AD2D815F0020E07D0F0
:1081600005F00701022900F0EF81E80740F1EC81FA
:10817000E907C5D5002A3BD174481D0B4FF0010813
:1081800030F8021F09B1A9421BD940F6F571B3FBC3
:10819000F8F58D429BBF05EB4505013502356D08AD
:1081A0008CBF6D00033505F2FF154FF020018CBF29
:1081B000022701276D0A4FF0010B0191E5E1520002
:1081C000C7E14FEA4808DBE7022F1FD103984FF6BB
:1081D000F57188420ED9002A40F0B2814FEA480278
:1081E000402AC7D9BEF1000F40F0B081802AAAD83A
:1081F0009046CAE7039840F6F57188420CD8002AE9
:10820000A1D14FEA4802802AB4D99CE7039A40F6EC
:10821000F5739A4297D801274FF400720021204647
:10822000FEF7BAFD0B224A492046FEF70FFE0799DA
:1082300084F80EB000230222032FE3722273CBF3E3
:10824000072B4FF00102637418BF0223B1F5803F82
:1082500084F80D8084F80FB02274A37454D2E174B2
:10826000C1F307212175F82363753F23002223768C
:10827000FF23A3766276E276494604F11C00FEF7FE
:1082800083FD032F4FF0210343D184F845304C2365
:1082900084F8432084F8442084F84630294604F1C9
:1082A0002400FEF771FD022384F82C30012384F8AA
:1082B0003030062384F83230802384F8403025495A
:1082C00084F82D20292384F82E2084F82F2084F888
:1082D000312084F8332084F84230132204F147001F
:1082E000FEF7B4FD4FF0550384F8FE316FF05503EF
:1082F00084F8FF314A4601232146304600F010FC45
:10830000834658B30120FCE604F12000FEF73CFD53
:10831000A9E784F829304C2384F82A30C5F30723D1
:10832000E375802384F82430292384F8272084F8F7
:108330002820A57584F826301322074904F12B0064
:10834000CEE700BFF4A7002000FEFF00C43B0300FF
:10835000E23B0300EE3B0300023C0300032F41D14C
:10836000012309F106022146304600F0D9FB4FF403
:10837000007259462046FEF70FFD522323706370AA
:108380006123A37084F8E731039B41227221E270DC
:1083900084F8E41184F8E51184F8E621591E04F507
:1083A000F470FEF7F1FC022384F8EC314FF0550332
:1083B00084F8FE316FF0550384F8FF3109F10702AC
:1083C0000123214684F8EDB184F8EEB184F8EFB1D1
:1083D000304600F0A5FB012309EB0302214630469D
:1083E00000F09EFB129B23F4FF7222F00102002199
:1083F0002046FEF7D1FC032F52D1F8232370FF2330
:108400006370A370E37023716371A371E3712372CE
:108410006372A3720F23E372049BAB4228BF2B4607
:108420002146524630469B4600F07AFB0146002822
:108430007FF468AF4FF400722046FEF7ADFCB5EB59
:108440000B05DA44E8D1019B032F08BF4346019393
:10845000019B049A934228BF134621465246304658
:108460001D4600F05DFB00287FF44CAF019B5B1BB9
:10847000AA440193ECD1032F1BD0079BB3F5803F97
:1084800019D2022F14BF01230423029AAAB1002299
:108490001146304600F0BAFB003018BF012030E62C
:1084A000012F5549204618BF6FF00701FEF76CFCFD
:1084B000B2E70C23E9E70623E7E74FF400720299DD
:1084C0002046FEF769FC552284F8FE21AA2284F892
:1084D000FF21029A84F8BE2184F8C121079A84F80A
:1084E000C2314A4443F6C163B2FBF3F2FE2384F87F
:1084F000C331930843F03F03012584F8C43184F865
:10850000C521494604F5E37084F8BF5184F8C05191
:10851000FEF73AFC079904F5E570FEF735FC2B46AB
:10852000029A2146304600F0FBFA0028AFD0E9E677
:108530000B20E6E50320E4E50A20E2E51120E0E572
:10854000BEF1000F3FF4FFAD002A52D12B485D0C65
:10855000012230F8021F19B1A9427FF630AE002186
:10856000B3FBF2F0264F8500A0F57F40F63805F208
:108570000725B8424FEA55253FF6E5AD90460A4635
:10858000002101914FF0200B03270199DDF818C05D
:108590000BEB090A681850440CF1FF310144CCF18F
:1085A000000C01EA0C0CC9EB0811ACEB000C032F1A
:1085B000084406BFE344E24465448342FFF4C3AD8C
:1085C000A3EB0B010198491B032FA1EB0001B1FBA9
:1085D000F8F103917FF4F8AD03984FF6F5718842F6
:1085E0003FF61AAE002A7FF4AEAD5FEA58023FF4C0
:1085F000AAAD1146B4E700BFF8FFFF00D23B03006D
:10860000FFFFFE0F10B594B00B4604464C2200212C
:1086100001A8FEF7C1FB013C019314F8011F01A85A
:1086200019B9FFF733FC14B010BDFFF713FCF4E7E2
:108630001EF0040F1CBFEFF309800AE0EFF308807F
:108640000549064A884201D8904202D88D464FF02B
:108650000000034B184700000000012000E000204C
:10866000658602002DE9F347054601F02FFB01F076
:1086700051F90028FBD12F4B2F4C9F6A2F4BE41A46
:10868000E408240444F00104002D4ED0AA692C49CA
:10869000204601F0C3FAEB680193AB6800932949C7
:1086A000D5E90023204601F0D9FAEB690093264969
:1086B000D5E90423204601F0C5FA1E4BDB6A980772
:1086C00003D52249204601F0A5FADFF89490DFF89F
:1086D00094A000264FF0010808FA06F33B4206D0AA
:1086E00059F826201AB15146204601F097FA013672
:1086F0001A2EF1D1390605D50E4B15495A6B204675
:1087000001F08CFA3A0405D50A4B12499A6B2046BF
:1087100001F084FA104B1B68DB0700D500BE284629
:10872000FDF7F8FE02B0BDE8F0870C49204601F0E5
:1087300071FAC2E700ED00E048540300D85303008B
:10874000253C03003A3C03006F3C0300CA3C030095
:10875000193D0300393D0300F0ED00E0973C0300B4
:10876000543D03000E3D03004FF04023C3F81C05A9
:10877000D3F80821002AFBD0D3F818050022C3F84B
:108780000821C0B270470000074908B50860FF2003
:10879000FFF7EAFFFF2802D00B68002BF7D1A0F10A
:1087A000FF035842584108BD00A800204FF0A043E5
:1087B0004FF48042C3F80825FF20FFF7D5BF08B566
:1087C0004FF0A0434FF48042C3F80C25FF20FFF781
:1087D000CBFF4FF4FA70FFF7D7FF014618B9FFF748
:1087E000E5FF084608BD0121FBE7020638B504464F
:1087F0000D4607D500213720FFF7F7FF01282BD8BA
:1088000004F07F040C2C28D144F04000FFF7ACFFAB
:10881000280EFFF7A9FFC5F30740FFF7A5FFC5F333
:108820000720FFF7A1FFE8B2FFF79EFFECB1082C8D
:1088300014BF01208720FFF797FF0C2C02D1FF20E7
:10884000FFF792FF0A21FF20FFF78EFF030603D5F3
:10885000013911F0FF01F6D138BDFFF7A7FFFFF78F
:10886000AEFF0028D0D1FF20F6E79520E3E7000017
:1088700038B5104DC82204462A60FF20FFF774FF68
:10888000FF2803D128680028F7D138BDFE280FD172
:108890002144FF20FFF768FF04F8010BA142F8D143
:1088A000FF20FFF761FFFF20FFF75EFF0120ECE7ED
:1088B0000020EAE7FCA7002010B500F2FF11441EDB
:1088C00014F8010FFFF750FF8C42F9D1FF20FFF79A
:1088D0004BFFFF20FFF748FFFF20FFF745FF00F0A9
:1088E0001F00431F5842584110BD0000F7B5002833
:1088F00040F0B2804FF0A0420323C2F838370C2179
:10890000C2F868374FF08063C2F83017C2F80835F4
:108910004FF040230D24C3F808450B24C3F80C4541
:10892000C3F810150121C3F854054C4DC3F80015C8
:10893000C3F808014FF48043C2F808350A232B60BE
:108940002B68002BFCD1464B1A7812F0020F1E4602
:1089500003D01878C0B203B0F0BD4FF040234FF001
:108960008062C3F824250A24FF20013CFFF7FCFEA7
:1089700014F0FF04F8D121462046FFF736FF012806
:10898000074665D14FF47A734FF4D57108202B60F8
:10899000FFF72BFF012841D101AFFF20FFF7E4FED5
:1089A00038550134042CF8D19DF80630012B4FD1F5
:1089B0009DF80730AA2B4BD12B6833B14FF0804183
:1089C000A920FFF712FF0028F6D12B68002B3FD01B
:1089D00000213A20FFF709FF002839D10146FF2086
:1089E000FFF7C2FE785401310429F8D19DF8043014
:1089F00013F0400F14BF0C2404241A4B1C70FFF713
:108A0000D5FE3CB34FF040234FF08042C3F82425FD
:108A1000337803F0FE03337030789BE72146A920BA
:108A2000FFF7E3FE022836BF02240124A9272B68A2
:108A30002BB100213846FFF7D8FE0028F7D12B686C
:108A400033B14FF400711020FFF7CFFE0028D4D0CF
:108A50000024D2E70123DEE701207CE7FCA7002009
:108A6000A8980020FAA7002018B9034B1878C0B2C4
:108A700070470120704700BFA898002070B51C46C1
:108A80004FF040230D4611460D22C3F808250B2256
:108A9000C3F80C250C22C3F8102501260022C3F8C8
:108AA0005425C3F80065C3F8082188BB84B31A4B6A
:108AB0001B78DA072ED4194B1B781B0758BF4902C5
:108AC000012C11D11120FFF790FE38B94FF400713D
:108AD0002846FFF7CDFEB0FA80F46409FFF766FE82
:108AE000201C18BF012070BD1220FFF77EFE002859
:108AF000F4D14FF400712846FFF7BAFE18B1013CDB
:108B000005F50075F5D100210C20FFF76EFEE5E7B5
:108B10000420E8E70320E6E7A8980020FAA7002051
:108B200070B51C464FF0402316460D22C3F80825A9
:108B30000B22C3F80C250C22C3F810250D46002289
:108B40000121C3F85425C3F80015C3F808210028F3
:108B500052D1002C50D02B4B1A78D0074ED41B7812
:108B600059074DD4284B1B781A0758BF7602012CA1
:108B70001BD131461820FFF738FE30B10124FFF732
:108B800015FE201C18BF012070BD4FF4FA70FFF7CE
:108B9000FBFD0028F2D0FE20FFF7E6FD2846FFF798
:108BA0008BFEB0FA80F46409E9E713F0060F03D0F6
:108BB00021469720FFF719FE31461920FFF715FED1
:108BC0000028DCD14FF4FA70FFF7DEFD50B1FC2035
:108BD000FFF7CAFD2846FFF76FFE18B1013C05F507
:108BE0000075EFD14FF4FA70FFF7CEFD0028C5D025
:108BF000FD20FFF7B9FDC2E70420C5E70320C3E766
:108C00000220C1E7A8980020FAA700207FB54FF006
:108C1000402315460D22C3F808250B22C3F80C2566
:108C20000C22C3F8102501240022C3F85425C3F8F0
:108C30000045C3F80821002840F0DE80704B1B7807
:108C4000D80700F1DB80042900F2D480DFE801F0CE
:108C50000309D24B9A00FFF7B2FDB0FA80F149093F
:108C600006E000210920FFF7C0FD044628B10121DC
:108C7000FFF79CFD084604B070BD10216846FFF761
:108C8000F7FD0028F3D09DF800309DF808109DF8FE
:108C900009009B09012B9DF807300AD11A0402F440
:108CA0007C1200EB012101320A4492022A60214623
:108CB000DEE79DF806209B00920203EB911302F47D
:108CC000406213449DF805209DF80A1002F00F023F
:108CD00002EBD112410001F006010A440133073AC8
:108CE00093402B60E3E7474B1C7814F004011DD040
:108CF00000218D20FFF779FD0028B8D1FF20FFF774
:108D000033FD10216846FFF7B3FD0028AFD03021B6
:108D1000FF20FFF729FD013911F0FF01F8D19DF87F
:108D20000A301A09102393402B60A1E70920FFF7AE
:108D30005CFD064600289AD110216846FFF798FD91
:108D4000002894D014F002019DF80A309DF80B0021
:108D50000DD05B009DF80D2003F07E0303EBD013D4
:108D600092090133013A93402B60314680E7C200FB
:108D700002F01802C3F3840302EB5012013302FB2A
:108D80000333D1E71F4B1E7816F0060F3FF46FAF89
:108D90006A460B210020FFF739FF00287FF467AFF8
:108DA0009DF800309B0904D19DF80A305A067FF5E2
:108DB0005EAFD5E90014330758BF49024FF02000D9
:108DC00058BF6402FFF711FD00287FF450AF214621
:108DD0002120FFF70AFD014600287FF448AF262036
:108DE000FFF703FD00287FF442AF47F23050FFF752
:108DF000CBFC32E704213BE704213BE7032139E7C1
:108E0000A8980020FAA7002038B54FF0A0430A4DDB
:108E10004FF08062C3F80C250A2445F001054FF499
:108E20007A40A847013CFAD14FF0A0434FF080624E
:108E3000C3F8082538BD00BF80420300094A136803
:108E40009BB213B1013B9BB21360074A13689BB2FC
:108E500013B1013B9BB21360044A137803F0F9038A
:108E600013707047FCA7002000A80020A8980020DD
:108E700050E8002F0B4640E8003C9CF0000FF7D173
:108E80001046704750E8003F43EA010240E8002CDA
:108E90009CF0000FF6D11046704750E8002F02EA10
:108EA000010340E8003C9CF0000FF6D110467047EB
:108EB00050E8003F03EB010240E8002C9CF0000F5B
:108EC000F6D11046704750E8003FA3EB010240E89E
:108ED000002C9CF0000FF6D1104670470121FFF7DF
:108EE000D1BF0021FFF7D9BF10B50446002834D008
:108EF00003681BB91A49FF2002F028FE636823B9F2
:108F000017494FF4807002F021FEA36823B9144979
:108F100040F2011002F01AFEE36823B910494FF441
:108F2000817002F013FE238A23B90D4940F2031029
:108F300002F00CFED4E9012321689B1ADBB20A601F
:108F4000013BDBB2FF2B226802D10020107110BD63
:108F50001168481C10600B70F2E70E20F7E700BFA5
:108F60008642030037B5054620B914494FF4927084
:108F700002F0ECFD02A8002400F8014DFDF7A4FE6C
:108F80002A68696813688B4210D9591E116013F85A
:108F9000014C2A8AEB6802FB04342A68AB6811682A
:108FA0005B1A1179DBB2994238BF13719DF8070043
:108FB000FDF7BAFE204603B030BD00BF8642030075
:108FC00037B50C46054620B9104940F2471002F06B
:108FD000BDFD24B90D494FF4A47002F0B7FD02A8FD
:108FE000002300F8013DFDF76FFE2A681368591C45
:108FF0001160EA68A41A2A8AB4FBF2F41C709DF886
:109000000700FDF791FE03B030BD00BF86420300AC
:1090100038B5084C04F108030546002818BF1C4663
:1090200023682BB11A6822605B6828469847F7E7E7
:1090300038BD00BF0CA8002020B9054B01225A7092
:10904000FFF7E6BF012802D1014A9070F8E77047A8
:1090500004A8002020B9034B01225A70FFF7D8BFA3
:10906000704700BF04A8002038B50B4C237883B9A3
:109070000A486360A3602361E36001F09BF8054642
:1090800002F01CFC08B901F0ABF80123237028465C
:1090900038BD8525FBE700BF04A8002039900200F9
:1090A00013B5154C237823B914494FF4857002F099
:1090B0004DFDE36823B9114940F20B1002F046FD63
:1090C00002A8002300F8013DFDF7FEFDE368013B27
:1090D000E360E36853B902F0F1FB18B10749792066
:1090E00002F034FD01F09AF80023A3709DF8070008
:1090F000FDF71AFE02B010BD04A80020D6420300FE
:10910000012813B509D003D303281BD002B010BD2A
:10911000134B0122C3F88020F8E702A80023114C6A
:1091200000F8013DFDF7D0FD23780BB9FFF79CFF58
:10913000E3689DF807000133E3600123A370FDF7A6
:10914000F3FDE3E7074B1B7823B9074940F24520BD
:1091500002F0FCFC01F044F8FFF7A2FFD6E700BFE5
:1091600000E100E004A80020D642030010B5044648
:1091700018B90649312002F0E9FCA2682AB16369F6
:109180002168206998470023A36010BD2B4303008A
:109190000EB433B5059D044618B91249422002F0B9
:1091A000D5FC63691BB90F49432002F0CFFC23684B
:1091B0001BB90C49442002F0C9FC63681BB909497A
:1091C000452002F0C3FC3DB102AA06AB42F8043DC3
:1091D0002946204600F06EF802B0BDE8304003B0EA
:1091E000704700BF2B430300826830B40468551CED
:1091F0008560A154D0E901329A4202D330BCFFF716
:10920000B5BF30BC704700002DE9F84F9946DDE945
:109210000A431746824688460A460126BA420FD2BA
:109220004E4538BF4E4613F0010B01D164B90024FE
:109230000125B9F1010F1AD909F1FF397D43F8E78A
:10924000B2FBF7F20136E9E79B070ED5B9F1000F43
:109250000CBF30252025A642EAD2013C29465046C3
:10926000FFF7C2FF002CF6D1E1E72025F3E7B8FBBA
:10927000F5F39F42E2D9DFF83890B8FBF5F350469A
:1092800019F8031005FB1388FFF7AEFFB5FBF7F5E0
:10929000002DF2D1BBF1000F02D00CB1A64201D3D8
:1092A000BDE8F88F20215046013CFFF79DFFF4E711
:1092B000714303002DE9F74F0E469046054620B94D
:1092C000AC494FF4A27002F041FC6B6923B9A94983
:1092D0004FF4A37002F03AFC2B6823B9A54940F281
:1092E000471002F033FC6B6823B9A2494FF4A47015
:1092F00002F02CFC002E00F03A8116F8011B002928
:1093000058D0252940F0D180002702E047F001071E
:109310001646324612F8013B2D2BF7D0302B04D0E5
:109320002B2B05D147F00407F2E747F00207EFE7E0
:1093300000242A2B06F101021BD1D8F80030191D98
:10934000C8F800101B6816461C4433782E2B1CD11D
:1093500001364FF0000A314611F8012BA2F130001E
:10936000092814D80A2303FB0A23A3F1300A0E4666
:10937000F1E712F8013CA3F130010929E5D80A21EF
:1093800001FB0434303C1646D3E74FF0000A324666
:1093900012F8011B01F0FB0068281646F8D0692975
:1093A00016D054D8582970D00ED825297DD03378BE
:1093B000002BA2D12B7B002B00F0D980284603B0D4
:1093C000BDE8F04FFFF7D2BE632968D06429EED123
:1093D000D8F80020111DC8F80010D2F8009089EAD2
:1093E000E972A2EBE9724FF0010B092A61DCD34567
:1093F00038BFD3462CB1B9F1000F01DB790700D596
:10940000013CBA0702D5BAF1000F04D0FB0702D421
:10941000002C54D10024B9F1000F58DAC9F1000929
:109420002D212846FFF7E0FE07F00302022A05D1AE
:10943000BAF1000F02D1002C4DD10024CDE9004734
:1094400053460A2249462846FFF7DEFEAFE7732956
:1094500054D016D87029AAD1D8F800301A1DC8F8EF
:109460000020302128461C68FFF7BEFE78212846E0
:10947000FFF7BAFE00220823CDE900322146102270
:10948000E1E775292FD0782991D1D8F800100A1D6D
:10949000C8F80020CDE90047534610222CE0D8F848
:1094A00000301A1DC8F8002019782846FFF79CFEE6
:1094B0007DE70A230BF1010B92FBF3F295E7A3453D
:1094C000A9D220212846013CFFF78EFEA0E77807AD
:1094D000AAD52B21A5E7A345B0D230212846013CCF
:1094E000FFF782FEA7E7D8F80010CDE900470A1D74
:1094F000C8F8002053460A220968A4E7D8F80030CB
:109500001A1DC8F80020F907D3F8009012D54F466D
:10951000A7EB090B17F8011B41B9A345BFF447AFEF
:1095200020212846013CFFF75FFEF6E72846FFF7BB
:109530005BFEEDE7B9F1000F17D0484602F020FFBF
:109540000746BC4200D954B909F1FF3919F8011F87
:1095500000293FF42CAF2846FFF746FEF6E720210E
:109560002846013CFFF740FEEBE74F46E9E703B032
:10957000BDE8F08F814303007047000007B5044B3E
:109580000093044A402300F032F803B05DF804FB76
:109590009995020019A800202DE9F8438946144640
:1095A000B2B10F4B0F4E0325002743F001082246AE
:1095B00009EB07010020FDF77FF80744241A48B99A
:1095C00033782BB14FF47A40C047013D02D135705A
:1095D000BDE8F88301233370002CE8D1F8E700BF21
:1095E000E043030018A800207047FDF7B7B8F0B5B6
:1095F00095B01C46164608460D4600F032FD1A9BF3
:109600000D93CDE9086400242346082205A92846C5
:109610000A948DF82C400C9400F04CFD079B0293AB
:10962000BDF81830ADF80C30BDF81A30ADF80E307A
:109630009DF814308DF8114003F00302012A1DD16A
:10964000BDF81440059EC3F3C203C4F383148DF820
:109650001030A20008230EA9284600F02BFDC6F307
:10966000952608AB0093224602AB0EA9304600F0C7
:109670009DFB284600F0F9FC15B0F0BD022AF8D198
:10968000BDF81640C3F3C203A4098DF810300827B3
:10969000082C264628BF08263B4632460EA92846F7
:1096A00000F008FDA41B08AB02AA31460EA83744FF
:1096B00000F0E0FB002CEBD1DBE7000008B5FFF782
:1096C00094FF0421064800F0D7FA002803DA054980
:1096D000412002F03BFA044B01225A7108BD00BF41
:1096E000EC540300F4430300AC980020037813F01B
:1096F000040216D003F00303012B03D0022B09D080
:10970000012070470A6800880232C0F383100244C7
:109710000A60F5E70B684288023303EB92130B6093
:10972000EEE71046704700002DE9F04F89B006467D
:10973000871C08A8484C009200230D4600F8113DF4
:10974000FDF7C2FA23682B60D4E901231344226891
:1097500001339B1A04F21C4804F5836B04F214498C
:10976000BB421AD3009A0023002A6DD0012262F373
:10977000010343F0040366F389132168A2689DF88E
:109780000F000A4003320F4444F822302760FDF7EF
:10979000CBFA012009B0BDE8F08F01214046FFF768
:1097A00087FB5846FFF79AFB0DF1200A4846FFF762
:1097B00095FB60684AF8100DA5682840033004EB5B
:1097C00080005146FFF792FF02460498002AF4D128
:1097D00005EA000304EB8303811CDB680593013079
:1097E000054004EB850503F00303012B0491ED68AC
:1097F00023D0022B08D0194901924FF4BF7002F018
:10980000A5F9019A154607E0BDF816309B09033308
:109810002D0C01EB930304934846FFF762FB08B15C
:10982000049B636029464046FFF742FBD4E90123CD
:109830001344226801339B1A92E7BDF81430C3F336
:1098400083132D0C0B44E6E7022262F3010343F07D
:10985000040366F39F5390E72CA9002063440300A0
:109860000B4B0C48FF2210B59A600022C3F8182455
:10987000C3E90022C3F81424012283F8202400F055
:10988000A9FB044610B9044800F02AFC204610BD8C
:109890002CA9002078540300BC44030030B50A4CC6
:1098A00071B10A4A0A49121BD20800239A4201D117
:1098B000002030BD31F82350854202D00133F5E756
:1098C000034654F83300F4E7D853030078540300F8
:1098D00080A20020094B013903EBC000032909D8FD
:1098E000DFE801F00A02040604207047007970479F
:1098F000407970470020704702207047D85303001A
:10990000034BD3E90030C31A58425841704700BF97
:109910002CA900202DE9F04387B0FFF7F1FF0646A0
:10992000002840F0FC807F4DC5F81804BFF34F8F2E
:109930006868AC6806AF47F8100D2040033005EBAF
:1099400080003946FFF7D2FE029B18B1D5F81824E3
:10995000002A5FD004EA0302991C013305EB82025E
:10996000234005EB8303D268DB68049302F0030312
:10997000022B0392029162D1BDF80E306A484FEA81
:109980009318B8F1500FC14628BF4FF0500969F342
:109990008F1309F10801ADF80E3000F033FB0746D4
:1099A000002800F0A78000F05CFB03A90023082238
:1099B000384600F069FB029924EA01060136B60038
:1099C000B14535D95FFA89F97EB3F6B2A9EB06093C
:1099D000214003315FFA89F4B146544E05EB810111
:1099E00008234A46384600F04FFB36B109F1080318
:1099F00022463146384600F047FB029B08F1030837
:109A000003EB98030293D5F81834002B4BD1D5F80B
:109A100010445BE02A689A4204D86A60304607B076
:109A2000BDE8F08304EA030088E740493446D7E7FD
:109A30002140033108234A4605EB8101DAE7012B77
:109A400058D1BDF80C303848C3F38311062928BF1C
:109A5000062161F3891302318900ADF80C3000F062
:109A6000D1FA0746002845D000F0FBFA002308226F
:109A700003A9384600F008FB0026BDF80C20C2F30D
:109A80008312B31C96424FEA8303BCD202994A1C4C
:109A900021400331029205EB81010422384600F097
:109AA000F3FA0136E9E7384600F0DFFAFFF728FF5E
:109AB00080F00100C6B2B1E7E3685B7923B12368A7
:109AC00039461B6820469847E3681C68002CF3D190
:109AD000384600F0CAFA06A800F8114DFDF7F4F870
:109AE000D5F818340BB9029B6B609DF80700FDF7A1
:109AF0001BF9DBE7D5F8104454B90D4B0D480E495E
:109B0000C01AC008000440F0020000F083F8CDE75E
:109B1000236820469B689847E3681C68ECE70026AA
:109B20007CE700BF2CA900207854030038A900204E
:109B3000D853030038540300C84403002DE9F74FFD
:109B40002F4C80460F46914601A9012218469B469C
:109B5000D4F808A0FFF7E8FD00283DD0019D0026BD
:109B6000A91C5E4506EB010240D100212548FFF704
:109B70007FF980F3100B244B244A4FEA18499B1AB3
:109B8000B9EBD30F04D3224940F2A31001F0DEFF5A
:109B90006B1C03EA0A0304EB830349EA0B42DA6015
:109BA00005EA0A030333012114F8232068F3C502F0
:109BB00004F8232034F8232066F3891224F82320A4
:109BC00054F8232067F39F2244F8232061F3010215
:109BD0006FF3820204F8232094F820341BB1FFF7BE
:109BE00099FE0028FBD103B0BDE8F08F0AEA02021B
:109BF00004EB820259F82630D3600136B1E700BF8A
:109C00002CA9002048AD002078540300D85303004D
:109C10006344030000231A46FFF790BF13B502AC5C
:109C2000012344F8042D2246FFF788FF02B010BD3F
:109C300007B5CDE9002302236A46FFF77FFF03B093
:109C40005DF804FB1FB5CDE90123069B039301AA30
:109C50000323FFF773FF05B05DF804FB1FB5CDE9E3
:109C60000023069B0293079B03936A460423FFF796
:109C700065FF05B05DF804FB30B5134AD2F8104417
:109C80000023214651B9C4682371D2F810445CB94D
:109C9000C2F81004C2681160184630BDC9680D7959
:109CA0009D420AD00968EDE7E468C16824680C6049
:109CB000D2F81024D2681060EEE701330A2BE0D10D
:109CC0004FF0FF33E8E700BF2CA9002038B5094A60
:109CD0000123D2F8104482F820341D4604B938BD5F
:109CE000E3685D71236820465B689847E3681C68F9
:109CF000F4E700BF2CA9002010B5037A052B0C4611
:109D00000FD0437A23B1084A08492046FFF740FAAA
:109D100007492046FFF73CFA2046BDE81040FFF710
:109D200025BA002AF8D0F3E70F45030014450300D5
:109D30003445030073B5C38804460D4633B1144A55
:109D400000921449144A2846FFF722FA217A05297D
:109D50001CD0637A4BB1A088FFF7BCFD0F4B1049B4
:109D600053F820202846FFF713FA227A0D4BA088DB
:109D700053F822600021FFF791FD0B49034632465C
:109D8000284602B0BDE87040FFF702BA02B070BDCD
:109D90000F4503001F45030017450300E04403007F
:109DA0001445030044450300374503002DE9F04303
:109DB00085B01F460C9D002306460C46904695F83C
:109DC0000C902B7329463846FFF7B4FFB8F1060F05
:109DD00009D8DFE808F00412181F28334000314684
:109DE0002846FFF7D5F9002229463846FFF784FFB9
:109DF00085F80C9005B0BDE8F0832268314628460E
:109E0000FFF7C6F9EFE7D4E9002331462846FFF70C
:109E1000BFF9E8E7A36800933146D4E90023284658
:109E2000FFF7B6F9DFE7E3680193A36800933146D3
:109E3000D4E900232846FFF7ABF9D4E7236902935E
:109E4000E3680193A36800933146D4E900232846D0
:109E5000FFF79EF9C7E76369039323690293E368F9
:109E60000193A36800933146D4E900232846FFF705
:109E70008FF9B8E708292DE9F84F80460E461746B6
:109E80001C4635D8002593F80C901D7319461046D2
:109E9000FFF750FFDFF88CA0DFF88CB0AE4229D975
:109EA00018F8052059462046FFF772F90135082DAC
:109EB000F4D11A49DFF874B02046FFF769F94FF082
:109EC000000A564524D918F80A507E2D17D92E229B
:109ED00059462046FFF75CF90AF1010ABAF1080F6A
:109EE000EFD1012221463846FFF706FF84F80C9097
:109EF000BDE8F88F51462046FFF74AF9D6E701F052
:109F0000FDFF2844427812F0970FE0D02A46DFE7A1
:109F100003492046FFF73CF9DEE700BF0A4503008E
:109F2000143C0300123C0300044503000C450300ED
:109F30002DE9F74F99469DF8303001938846174632
:109F4000054618B92249B62001F000FEEA8895F8C6
:109F500005B00BFB02FBABF1040BCB4503D81C494E
:109F6000C42001F0F3FD3E68B5F806A006EB090237
:109F70005A4509F1040188BFABEB0906B1FBFAF4BD
:109F80003E600AFB141144B9AAEB0107B74228BF8F
:109F900037462EB903B0BDE8F08F2D68013CF2E7DB
:109FA000019A043108EB0403681872B101463A467D
:109FB0001846F61B01F0C6FFB2453C442D685746D3
:109FC0004FF0000128BF3746E3E73A461946F0E76D
:109FD000A3450300FEF788BFF8B546790146721E17
:109FE0000546002393422D6803D30024A64202D8DD
:109FF000F8BD0133F6E70F682846FEF7E1FF0134AC
:10A000003946F3E72DE9F843CD1C068A0746FEF7EB
:10A01000A9FF043E35440446B5FBF6F5F0B14FF414
:10A020008073EDB28380C680013D076081464FF0AA
:10A030000008A84512D23846FEF794FF064648B1FC
:10A0400063790133637108F10108C9F80000076002
:10A050008146EEE72046FFF7BFFF34462046BDE8C5
:10A06000F88301210430FEF723BF10B50121044617
:10A070000430FEF728FF10F0FF0F04D12046BDE8A2
:10A080001040FFF7A9BF10BD30B585B0144604AA33
:10A09000002542F8044D0095FFF74AFF039BA342B9
:10A0A00003D00349F62001F051FD05B030BD00BFDB
:10A0B000A345030030B585B0144604AA012542F833
:10A0C000044D0095FFF734FF039BA34204D00349DE
:10A0D0004FF4807001F03AFD05B030BDA345030098
:10A0E000826800239360826813618268536182688A
:10A0F000D3608268536082681360704738B50D463C
:10A10000044618B90849502001F020FD1DB9064940
:10A11000512001F01BFD25602B6863606A68934243
:10A1200004BF0023636038BDFC45030010B504463E
:10A1300018B90B49632001F009FD23681BB90849D0
:10A14000642001F003FD636843B1226891680B4409
:10A1500063605268934204BF0023636010BD00BF78
:10A16000FC4503000D4930B5A1F5947202259142DA
:10A1700001D800200EE08B1ADB1093FBF5F302EB05
:10A18000C30452F83330834205D802D204F10802E6
:10A19000EDE7606830BD2146E9E700BFA047030056
:10A1A00008B5FFF7DFFF024B002808BF184608BDBF
:10A1B0006546030010B5044618B90749A02001F010
:10A1C000C5FC064B187920B901221C601A71587120
:10A1D00010BD8520FCE700BF5A4B0300E8AD00200E
:10A1E00008B50B4B1B791BB90A49B92001F0AEFC2D
:10A1F000094B1A68D2075FBFE02283F800230122CF
:10A200001A604FF080430122C3F8182508BD00BF33
:10A21000E8AD00205A4B030000E100E008B5084B10
:10A220001B791BB90749F32001F090FC064B012272
:10A230001A604FF08042D2F81834DB03FBD408BD1B
:10A24000E8AD00205A4B03000C00004007B5154B49
:10A250001A687AB100221A601B680093009B4FF0C5
:10A2600080430122C3F808230F4B587910B95A7163
:10A270001B6898470D4B1A6882B100221A601B6850
:10A280000193019B4FF080430222C3F80823064B41
:10A290001B68012003B05DF804EB184703B05DF8BC
:10A2A00004FB00BF00010040E8AD002004010040B5
:10A2B00000F1804000F5C040002382B003600368D5
:10A2C0000193019B02B07047054B4FF0FF32072806
:10A2D00043F8202084BF1B1883F84820704700BF34
:10A2E000F0AD002002494FF4F37001F02FBC00BF25
:10A2F000AD4B03001F2838B504460D4601D9FFF7C2
:10A30000F1FFA00000F1A040D0F8003723F4403363
:10A31000C0F80037D0F8003743EA0543C0F80037EB
:10A3200038BD000010B5164C94F8583033BBFF21EF
:10A33000E2180133202B82F83010F9D10021C8B285
:10A34000FFF7C2FF01310C29F9D1042200210D4889
:10A3500001F092FE0C4BE02283F8062340221A60A3
:10A360004FF4BE70FFF7A4FF084B4FF00042C3F854
:10A370000423012384F85830002010BD0820FCE796
:10A38000F0AD002044AE002000E100E0006000409D
:10A39000034B93F85800003018BF0120704700BFEE
:10A3A000F0AD00201F2870B504460D4604D9414980
:10A3B0004FF4987001F0CAFB3F4E96F85830012BCD
:10A3C00004D03C4940F2311001F0C0FB25B93949B5
:10A3D0004FF4997001F0BAFB331993F93020013230
:10A3E00065D1AA78002A54D0002356F823100131F1
:10A3F0004FEA830248D1311902F1804281F83030AE
:10A40000002102F5C04246F82310D2F810052B783F
:10A41000697820F498101B04090520F4F85001F421
:10A42000801103F44033C2F810050B432102D2F827
:10A43000100501F4F8510B430343C2F810356B7853
:10A44000012B4FF0010528D11F2C01D9FFF74AFF3E
:10A450004FF0A043A540C3F808551F2C01D9FFF7C2
:10A4600041FF04F5E0724FF0A043032143F82210AE
:10A47000E2081249012304F0070403FA04F48B5C98
:10A480001C438C54002003E00133082BADD1042081
:10A4900070BDFE2283F83020D1E71F2C01D9FFF7D1
:10A4A00021FF4FF0A043A540C3F80C55D5E7082085
:10A4B000EEE700BFF04B0300F0AD002044AE0020FB
:10A4C0001F2838B5054604D912494FF4BE7001F073
:10A4D0003DFB114C621992F93020013204D10D4933
:10A4E00040F27D1001F032FB631993F83030072BF6
:10A4F00004D808494FF4BF7001F028FB1F2D01D983
:10A50000FFF7F0FE012303FA05F54FF0A043C3F86F
:10A51000085538BDF04B0300F0AD00201F2838B5BA
:10A52000054604D912494FF4C37001F00FFB114CDA
:10A53000621992F93020013204D10D4940F287109E
:10A5400001F004FB631993F83030072B04D8084955
:10A550004FF4C47001F0FAFA1F2D01D9FFF7C2FEC3
:10A56000012303FA05F54FF0A043C3F80C5538BD9D
:10A57000F04B0300F0AD00202DE9F04F87B0002430
:10A580005B4A5C4E5C4D039401211368A2F5C04008
:10A59000012B80B206D1D6F804330B4202D0FFF76C
:10A5A00087FE0C430432AA424FEA4101EDD1534BDE
:10A5B0001B68012B0AD14FF4BE70FFF779FE4FF0F4
:10A5C000A04344F00044D3F81035039314F0FF0F78
:10A5D0001AD04B4F00250126344210D0AB0003F1B6
:10A5E000804303F5C043D3F81005D3F8101557F88E
:10A5F0002530C0F30420C1F3014103B19847013570
:10A60000082D4FEA4606E7D1002C6EDA00224FF003
:10A61000FF33CDE904233A4F4FF0000A56464FF07E
:10A62000A04907EB0A0393F95040631C46D0E4B2FB
:10A63000012224F0C00504F0070B02FA0BFBEB0823
:10A6400006AAD11811F8042C12EA0B0F36D07A1989
:10A65000A40992F9302057F82280B8F1000F0AD1EE
:10A66000032C2BD10DF1100C1CF8030040EA0B0059
:10A670000CF8030001E0032CF4D01F2D03D9019145
:10A68000FFF730FE019911F80C1C05F5E07311EA93
:10A690000B0F59F82330C3F3014320D0022B0DD107
:10A6A000032C05D121462846FFF724FE0136F6B2D9
:10A6B000B8F1000F02D021462846C0470AF1010A2E
:10A6C000BAF1040FADD186B14FF0A043039AD3F88D
:10A6D00010359A4209D00393049B05939CE7032B02
:10A6E000ECD1032CE4D10221DDE707B0BDE8F08F07
:10A6F0000061004000600040206100407C6100403B
:10A70000F0AD002010B5054C22681AB9044951205B
:10A7100001F01CFA2368BDE8104018474CAE002039
:10A72000494C03000023435082B043580193019BDE
:10A7300002B0704770B5D0F8103105460C4653B1E1
:10A740004FF48871FFF7EEFF63795A0703D523684A
:10A750000BB101209847D5F814315BB14FF48A71E1
:10A760002846FFF7DFFF63791B0703D523680BB18A
:10A7700002209847D5F81C315BB128464FF48E7102
:10A78000FFF7D0FF607910F0100002D1236803B109
:10A790009847D5F8043163B14FF482712846FFF72A
:10A7A000C1FF0123237123681BB10320BDE8704062
:10A7B000184770BD01490248FFF7BCBF54AE0020E6
:10A7C00000C0014001490248FFF7B4BF5CAE002061
:10A7D0000010024001490248FFF7ACBF64AE002000
:10A7E0000020024000F1804000F5E040002382B0EC
:10A7F000036003680193019B02B07047F0B5514BB1
:10A80000514C1B6885B0DBB14FF4827094F82E2058
:10A81000FFF7E8FF12B194F82F30A3B163680293F9
:10A820002389ADF80C30E36800218DF80410002B6B
:10A8300044D12374236801A89847002384F82F305B
:10A8400094F82E3003B3414B1B68EBB14FF480708A
:10A85000FFF7C8FF94F82D20638B91B28B4238D953
:10A860005B1A21899BB26383CB1A616801EB4301B8
:10A87000374BC3F82C16C3F830264FF48270FFF71D
:10A88000B1FF344B01221A60334B1B685BB14FF4AC
:10A890008870FFF7A7FF002304A82374022300F8A1
:10A8A0000C3D236898472D4B1B6813B34FF48A70F7
:10A8B000FFF798FF0023237405B0F0BD208B608361
:10A8C00063602081E160002AB4D1214B01221A602B
:10A8D000B0E7D2D1E368012184F82F103BB1002109
:10A8E00061831B49C1F82C36C1F83026C5E7638364
:10A8F000C3E766694FF000470125002EDCD0B6FAA9
:10A9000086F227FA02F34632920026EA030602F1A3
:10A91000804303F5E0431B68002BEED01046FFF7A1
:10A9200061FFA2F58C72D30882F00402C2F38002A8
:10A930008DF808308DF804508DF80920236801A89F
:10A940009847DAE7047100406CAE002000710040C7
:10A95000007000400470004010710040147100400D
:10A9600002494FF4F37001F0F1B800BFAD4B0300A2
:10A970001F2810B5044601D9FFF7F2FF012303FA9F
:10A9800004F44FF0A043C3F80C4510BD1F2810B5C8
:10A99000044601D9FFF7E4FF012303FA04F44FF062
:10A9A000A043C3F8084510BD13B54FF04023D3F8BA
:10A9B00018310BB3114B124C00221A601B68019323
:10A9C000019B236823B90F494FF4277001F0BEF8AB
:10A9D000E07FFF2803D0A37F5BB1FFF7C9FF00230F
:10A9E00063772372D4E90031074802B0BDE8104014
:10A9F0001847FFF7CBFFF2E702B010BD1841004047
:10AA00009CAE0020A64C0300A4AE00202DE9F74325
:10AA1000002406460F4600F5A0754FF48038A14685
:10AA200004F150002B68800080B26BB1D6F804337B
:10AA300008FA04F21A4207D0C5F800902B68019377
:10AA4000019BD7E9003198470134042C05F1040536
:10AA5000E6D103B0BDE8F08301490248FFF7D6BF55
:10AA6000C0AE00200080004001490248FFF7CEBF81
:10AA7000CCAE0020009000400023435082B04358E9
:10AA80000193019B02B07047F0B5504C236887B02A
:10AA900023B94F4940F2452001F058F84D4AD2F809
:10AAA00024311546A3B14FF492711046FFF7E4FF2D
:10AAB000D2F8043163B9A368C2F808330223A36053
:10AAC000A368C2F8043301231362536107B0F0BDD9
:10AAD000D5F80431002B49D03F4F3E484FF48271E6
:10AAE000FFF7CAFF0FCF01AE0FC63B68336094F883
:10AAF0002E307BB1237B012B0CBFD5F83C25D5F83C
:10AB00004C250292022B334B0CBFD3F83C35D3F8C3
:10AB10004C3503934FF4B0712E48FFF7ADFF4FF45F
:10AB2000AE712C48FFF7A8FF94F8303013B194F8B9
:10AB30002E303BB1274B0022C3F80022A260274AE7
:10AB4000C3F80823234AD2F8C434C2F8C4349A079D
:10AB500036D501238DF8003094F830300BB984F8E5
:10AB60002F30D4E9003168469847AFE74FF4A4711D
:10AB70001848FFF781FF237B83B9174F0FCF01AE32
:10AB80000FC63B68336094F83030002BDAD1C5F83B
:10AB90000032A360114BC5F80833D3E74FF40073BC
:10ABA000C5F8003240F20223A36003F1CE73C5F86A
:10ABB0000833A368C5F804330123AB602B6285E733
:10ABC00013F0040318BF0223C4E700BFD8AE00206F
:10ABD000FD4C030000300040E4AE002002029C0166
:10ABE000FEF72CB9F0B5ADF50F7D002301224C49DD
:10ABF0004C488DF80F30FCF7B3FE9DF80F304A4EED
:10AC0000474C484F1843C0B28DF80F009DF80F30E5
:10AC100003F0FF05002B42D1444E0122316804A805
:10AC2000FCF7C4FE9DF80F301843C0B28DF80F003A
:10AC30009DF80F30042B62D13D4B1D703D4D3E4CB5
:10AC40002A7831682046FCF7B1FE9DF80F30184392
:10AC50002B78C0B2DB068DF80F0009D5E1682046DD
:10AC6000FDF77FF99DF80F301843C0B28DF80F0043
:10AC7000324B1B787BB12E4B1B7863B92E49304881
:10AC8000FDF7C0FC2C48FDF718F99DF80F3018436C
:10AC9000C0B28DF80F002B4B01221A7029E09DF8ED
:10ACA0000F30DBB2032B24D00D2B03D09DF80F10F7
:10ACB000254810E04FF4007300930022334607212B
:10ACC0002046FDF7E9F98DF80F009DF80F302BB104
:10ACD0009DF80F101D4801F019FA0AE001222146E3
:10ACE0003846FCF73DFE8DF80F009DF80F30002B25
:10ACF0008CD09DF80F00C0B20DF50F7DF0BD9DF812
:10AD00000F30002B9AD10A4B012204A81A70FDF7CC
:10AD10001BF99DF80F301843C0B28DF80F008DE776
:10AD20003645030060B2002096B4002030AF00200A
:10AD300035B0002095B4002038B0002034B0002099
:10AD400034AF002094B40020854D0300604D030013
:10AD500010B5064C23780133DBB2142B237003D9D2
:10AD6000FEF752F80023237010BD00BF2CAF002067
:10AD700038B5244B1B7805460C46002B3ED1FBF71B
:10AD8000EBFE18B1204A4B21FBF7F3FC1F4A204889
:10AD90000121FBF725FF18B11B4A4F21FBF7E9FC06
:10ADA000002221211B48FBF72DFF18B1164A56211E
:10ADB000FBF7DFFC184B1D602378772B01D0612B4C
:10ADC0001ED1627812B1A178722919D1772B10D1D6
:10ADD000124B0A212C2A197007D1A378722B01BFBC
:10ADE0000E4A137843F001031370BDE83840FFF7B3
:10ADF000F9BE612B04D1094B1221EBE7082038BDC5
:10AE00000920FCE794B40020B24D0300E1AB02003E
:10AE10005C4D03000CAF002030AF002095B4002043
:10AE20000FB413B5124904AB012053F8042B08707A
:10AE30004FF480710F48019303F0CAF80E4B1B7852
:10AE4000A3B90E490B48FDF7DDFB0C48FDF735F8BB
:10AE5000044628B1FFF7C6FE044608B1FFF778FFA5
:10AE6000204602B0BDE8104004B070470624F7E762
:10AE700034B0002034AF002035B0002038B00020BE
:10AE800037B5054613480C46C1680023091B0193DA
:10AE9000FDF767F8014620B10F4801F037F9FFF7D9
:10AEA00057FF2246294601AB0A48FCF768FE019A83
:10AEB0009442054603D02146084801F027F92DB1F8
:10AEC0002946074801F022F9FFF742FF284603B060
:10AED00030BD00BF38B00020E74D0300104E030026
:10AEE000444E0300F0B5394B394C1A6885B07AB13D
:10AEF00000221A601B680093009B637943F00803EB
:10AF000003F01202122A637104BF43F0200363713D
:10AF1000304B1A687AB100221A601B680193019BBA
:10AF2000637943F0040303F01102112A637104BF33
:10AF300043F020036371284B1A68B2B100251D60ED
:10AF40001B680293029B254B25480422C3F8082363
:10AF5000C3F80055236829469847236821482946A5
:10AF600098470123237105B0F0BD637903F00F0208
:10AF70000F2A08D0D80701D4190704D462799207A0
:10AF8000F1D45B07EFD56379266803F0F30313F080
:10AF9000200708D003F0D30343F0100363710121AD
:10AFA0000020B047DFE70E4A92E8030002AD85E8D3
:10AFB000030012E9030043F0100382E80300C4E930
:10AFC0000277637101212846EBE700BF145102406C
:10AFD00098B600200451024008510240005002403F
:10AFE000A8B60020A0B6002070B5C0B14AB116883E
:10AFF0000024B44203D305196D789D4208D0A142C4
:10B0000001D800200BE0055D01352C44A4B2F0E727
:10B01000A142F6D9A31C1380005D013880B270BD37
:10B0200037B502AC002324F8023D134622460546FC
:10B03000FFF7DAFF10B1BDF80600284403B030BDB9
:10B0400072DF704773DF704738B5012204460D4642
:10B05000B0F83812D0F83402FFF7E2FF00B1057003
:10B0600004F13C0204F50D7104F15400BDE83840D0
:10B07000FFF7E6BFF8B5077804460D46002F00F04D
:10B08000058100F24A26A17007220021304600F017
:10B09000F3FFE38813B1A378012B04D0E3794BB11C
:10B0A000A378022B06D1636BA3B1012284F851224D
:10B0B00008209847334604F5147113F8012F12B98C
:10B0C0009942FAD117466B1E032B53D8DFE803F0E1
:10B0D000050B0F1284F85132ECE7A3791BB194F8F9
:10B0E000243003B95FB9E3790BB1002F44D1237A3F
:10B0F000002B43D1637A002B0CBF00250425636B22
:10B10000A570002B3CD0033D012D39D86279002A6F
:10B1100036D094F85222002A32D184F854220122E7
:10B1200084F853220720984704F13C051822002197
:10B13000284600F0A1FFE36A94F824200121581E5C
:10B14000884288BF0B4684F83C1084F8513032B1F5
:10B15000884296BFA36A84F8521084F85230A178CE
:10B16000002384F8503004291BD8DFE801F0770D64
:10B17000223559000025C2E70225C0E70325BEE7B6
:10B18000002384F85332CFE7C4F84432C4E9106393
:10B190000223012284F83C30802384F83120A4F873
:10B1A0004830A378002B5CD1636B002B6AD1002060
:10B1B00067E0022384F8313062B1072384F83C3021
:10B1C0002369A4F848300023C4F84432E3682664B5
:10B1D0006364E6E70323F1E763696364A369A4F8A2
:10B1E000483012B1062384F83C306379B3B194F847
:10B1F00052329BB994F8543283B1022384F8503010
:10B2000004212046FFF720FF0028CAD1052384F837
:10B21000313004F50D73C4F84432C2E70323F6E776
:10B22000E3696364236AA4F8483012B1062384F802
:10B230003C30637983B194F852326BB994F854324C
:10B2400053B1022384F8503004212046FFF7FCFE5E
:10B250000028A6D10623DAE70423D8E784F83130A2
:10B260009FE72A46D4F8441204F15400FFF7E8FEA1
:10B2700038B994F8301094F85400FFF7E3FE002832
:10B2800092D0F8BD94F83100984790E70820F8E78D
:10B2900010B50388112B0C460AD0262B1FD0102B7B
:10B2A00005D1C37B012B02D18388A1F8483210BDA0
:10B2B000002381F852328288B1F848329A42F6D19E
:10B2C0000B79002BF3D101212046FFF7D3FE002894
:10B2D000EDD0A36B002BEAD0BDE810401847037AED
:10B2E000013B012BE3D889780523013191FBF3F36E
:10B2F00003EB8303C91AC9B2E6E77047034B1A8808
:10B3000082420CBF18460020704700BFCCB6002018
:10B31000024B9B6903B11847704700BFB0B60020CD
:10B3200013B50B46497A0F4C024669B9D4E90110AE
:10B330001C7A002C18BF01465868FBF763FC08B163
:10B34000FFF7E6FF02B010BD002119726369002B00
:10B35000F8D00121ADF806008DF8041001A8984737
:10B36000F0E700BFB0B6002030B583880588B3F59C
:10B37000FA7F24BF6FF4F9729C184A8838BF002402
:10B3800095420CD84088904209D38A88A24206D3BD
:10B3900003F2F310904234BF0020012030BD0020A2
:10B3A000FCE7000070B50388112B014648D002D895
:10B3B000102B1ED070BD122B52D0502BFAD12F4B18
:10B3C000C288DB899A42F5D1038A022BF2D18688A2
:10B3D0003046FFF793FF05460028EBD001F112003D
:10B3E00000F050F830BB6868FBF750FC0028E1D053
:10B3F00009E0C37B012BDDD14FF6FF70FFF77EFF25
:10B40000054620B90420BDE87040FFF781BF8E8853
:10B410001B4A0680002303721368C5F80A300A30FD
:10B42000536843601031FFF79FFF144B6872DB894C
:10B43000002BBFD129463046BDE87040FFF770BFF2
:10B440008088FFF75BFF04460028B3D04068FBF715
:10B450001DFC08B1FFF75CFF4FF6FF732380A9E7DF
:10B4600086883046FFF74AFF05460028A2D00831FB
:10B470000A30FFF779FF6872DCE700BFB0B6002042
:10B48000E0B60020007800F00100704790DF7047C0
:10B49000A5DF7047B5DF70477FB50023ADF8081012
:10B4A000ADF80A106A4602A9064603930093ADF868
:10B4B0000430FFF7EBFF0546F8B1114B114CE41ACD
:10B4C000E408FEF76DFE240444F00104034632460E
:10B4D0000D492046FEF7ACFBBDF80020BDF8023058
:10B4E00002B91BB109492046FEF7A2FBBDF80420B2
:10B4F0001AB107492046FEF791FB284604B070BDFB
:10B50000D853030050540300704E0300BA4E03009A
:10B51000F94E030013B5034680880C46A0B91A887B
:10B52000232A00F0AF8011D8102A25D0112A54D038
:10B53000A37A4BB1E1880020FFF7AAFF002840F072
:10B54000A7800123A072E37202B010BD3A2A4ED048
:10B55000552A68D0242AEBD11A7A0B694A73002B3A
:10B56000E6D04DF67A21ADF80400ADF80010ADF844
:10B5700002008DF8042081E00A790A73DB7B012B3D
:10B5800013D0022B14D0E18823898B4205D20020EE
:10B59000FFF77EFF70B90123E372217B637B8B424F
:10B5A000C6D20020FFF778FFC2E70B88E380EAE706
:10B5B0004B88FBE7112802D10123A372EDE7FEF7C8
:10B5C000EFFD3C4A3C4B3D499B1ADB081B040246FD
:10B5D00043F00100FEF722FBDFE7F723CB801723C0
:10B5E0000B8141F6FB338872C8728B81A0E75B89BF
:10B5F000CA88934228BF1346172B0A6938BF1723FE
:10B600000B8162B1C97A51B140F67721ADF80010D3
:10B61000ADF80200ADF8043069462046904700239B
:10B62000E372A37284E7DB88C988A072172B38BF46
:10B6300017238B4228BF0B462381FFF72BFF60B1F6
:10B64000FEF7AEFD1B4A1C4B1D499B1ADB081B0471
:10B65000024643F00100FEF7E1FAE27A002A7FF4A5
:10B6600067AF2369002B3FF463AF40F67721ADF855
:10B6700002202289ADF80010ADF80420694620466A
:10B68000984755E7197A237B994228BF194689E7DD
:10B6900011283FF459AFFEF783FD064A064B0749D0
:10B6A0009B1ADB081B04024643F00100FEF7B6FAC2
:10B6B0004AE700BFD8530300505403004F4F030024
:10B6C000804F0300B0DF704766DF704710B5034658
:10B6D00000214088FFF7F8FF024608B91A7210BD32
:10B6E000112801D10122F9E75B68BDE81040184735
:10B6F00028B10378DE2B04D14180002070470E2052
:10B70000704708207047F0B5054685B00C46F1B18A
:10B71000E8B10B78DE2B1AD182884B889A4204D18B
:10B720000B7A13B10846FFF7D1FF2B88112B32D0CB
:10B73000512B0ED0012B0AD12B7A012B07D1A988CE
:10B740006288914203D123722046FFF7BFFF05B004
:10B75000F0BDAE886388B342F9D1AF79022FF6D13C
:10B76000AD7B2B1F022BF2D800211022684600F07F
:10B7700083FC052D14BF4FF4C07300236946304687
:10B780008DF80070ADF80430FFF79CFF0028DED084
:10B7900063689847DBE76388AA889A4204BF4FF63C
:10B7A000FF736380D3E710DF7047000013B50446D2
:10B7B00009496846FEF7A2FC019808B902B010BD1D
:10B7C000D0E900312046984718B16846FEF7AEFC34
:10B7D000F2E71120F2E700BFC04F030013B50446A3
:10B7E00007496846FEF78AFC019B0BB902B010BD01
:10B7F0002046D3E9002190476846FEF797FCF3E71F
:10B80000D84F03000C4991F816335A09EC23134121
:10B81000DB0706D5094B9A684AB94FF480030B60E1
:10B820007047074AA12142F20200FAF7A2BF1A6844
:10B8300042F480021A60704700E100E034BA002050
:10B84000E44F0300F7B5184F3C785CBB174E012559
:10B8500020463570FFF7AAFF112820D02046FFF7B9
:10B86000BDFF134B1868019002A800F8054DFBF7C7
:10B870002BFA104901A8FFF796FF0446B0FA80F0B2
:10B88000400938709DF80300FBF74EFA3CB90A4BAB
:10B8900034701C70FFF7B6FF2846FFF79FFF204665
:10B8A00003B0F0BD0824FAE7E9B60020E8B60020AE
:10B8B000BC4F0300ED630200EAB60020014B18788C
:10B8C000704700BFE9B6002007B508496846FEF793
:10B8D00015FC019B13B903B05DF804FBD3E900200C
:10B8E00090476846FEF722FCF3E700BFCC4F030009
:10B8F000FFF7EABF61DF704730B5134DADF5017D4D
:10B900004FF4FA740DF1020103A8ADF80240FFF7FD
:10B91000F1FF70B9294601A8FEF7F0FB029B002B4E
:10B92000F0D003A8D3E90021904701A8FEF7FEFB61
:10B93000F4E7052804D0054A40F23911FAF719FF57
:10B940000DF5017D30BD00BF8C5003003A5003005F
:10B95000024B1B780BB1FFF7CFBF7047EBB600204F
:10B9600076DF70477FDF704786DF70478ADF70477A
:10B970008FDF7047B1DF704733DF704737B503881B
:10B980001D2B044600F0AC801DD8132B7CD00AD8A8
:10B99000102B3DD0112B5DD0604B13B12046AFF37F
:10B9A000008003B030BD142B00F08C801B2BF3D132
:10B9B000037A012BF0D1FFF7DFFF0028ECD0584AC3
:10B9C0004FF4CC716DE0502B52D00ED8212B00F0EB
:10B9D00096803B2BE0D113218088FFF7C1FF002820
:10B9E000DAD04F4A4FF4D0715BE0522B5CD045D394
:10B9F000562BD1D18379002BCED14A4B13211888F5
:10BA0000FFF7AEFF0028C7D0454A40F2A71148E033
:10BA1000444D818844482980FFF76AFE20B1404A9E
:10BA20004FF49D71FAF7A5FE00231A46194628889F
:10BA3000FFF7A0FF20B13A4A4FF4A171FAF799FE3F
:10BA40003A4800F063FB3A4B002BA5D02046AFF3F9
:10BA50000080A1E7334B37484FF6FF721A8000F0A1
:10BA600055FB354B002B97D02046AFF3008093E772
:10BA7000324B002B90D0AFF300808DE7304B002B82
:10BA80008AD0AFF3008087E7264800231A46852135
:10BA90000088FFF767FF00283FF47EAF204A40F29E
:10BAA0008111FAF766FE77E71E4800231A46194609
:10BAB0000088FFF75FFF00283FF46EAF184A40F29E
:10BAC0008711EEE7174800231A4619460088FFF74A
:10BAD0004BFF00283FF460AF114A40F29111E0E7BC
